{
  "contractName": "kiddies",
  "abi": [
    {
      "inputs": [],
      "stateMutability": "nonpayable",
      "type": "constructor"
    },
    {
      "anonymous": false,
      "inputs": [
        {
          "indexed": true,
          "internalType": "address",
          "name": "owner",
          "type": "address"
        },
        {
          "indexed": true,
          "internalType": "address",
          "name": "approved",
          "type": "address"
        },
        {
          "indexed": true,
          "internalType": "uint256",
          "name": "tokenId",
          "type": "uint256"
        }
      ],
      "name": "Approval",
      "type": "event"
    },
    {
      "anonymous": false,
      "inputs": [
        {
          "indexed": true,
          "internalType": "address",
          "name": "owner",
          "type": "address"
        },
        {
          "indexed": true,
          "internalType": "address",
          "name": "operator",
          "type": "address"
        },
        {
          "indexed": false,
          "internalType": "bool",
          "name": "approved",
          "type": "bool"
        }
      ],
      "name": "ApprovalForAll",
      "type": "event"
    },
    {
      "anonymous": false,
      "inputs": [
        {
          "indexed": true,
          "internalType": "address",
          "name": "previousOwner",
          "type": "address"
        },
        {
          "indexed": true,
          "internalType": "address",
          "name": "newOwner",
          "type": "address"
        }
      ],
      "name": "OwnershipTransferred",
      "type": "event"
    },
    {
      "anonymous": false,
      "inputs": [
        {
          "indexed": true,
          "internalType": "address",
          "name": "from",
          "type": "address"
        },
        {
          "indexed": true,
          "internalType": "address",
          "name": "to",
          "type": "address"
        },
        {
          "indexed": true,
          "internalType": "uint256",
          "name": "tokenId",
          "type": "uint256"
        }
      ],
      "name": "Transfer",
      "type": "event"
    },
    {
      "inputs": [],
      "name": "MAX_PUBLIC_MINT",
      "outputs": [
        {
          "internalType": "uint256",
          "name": "",
          "type": "uint256"
        }
      ],
      "stateMutability": "view",
      "type": "function",
      "constant": true
    },
    {
      "inputs": [],
      "name": "MAX_SUPPLY",
      "outputs": [
        {
          "internalType": "uint256",
          "name": "",
          "type": "uint256"
        }
      ],
      "stateMutability": "view",
      "type": "function",
      "constant": true
    },
    {
      "inputs": [],
      "name": "PRICE_PER_TOKEN",
      "outputs": [
        {
          "internalType": "uint256",
          "name": "",
          "type": "uint256"
        }
      ],
      "stateMutability": "view",
      "type": "function",
      "constant": true
    },
    {
      "inputs": [
        {
          "internalType": "address",
          "name": "to",
          "type": "address"
        },
        {
          "internalType": "uint256",
          "name": "tokenId",
          "type": "uint256"
        }
      ],
      "name": "approve",
      "outputs": [],
      "stateMutability": "nonpayable",
      "type": "function"
    },
    {
      "inputs": [
        {
          "internalType": "address",
          "name": "owner",
          "type": "address"
        }
      ],
      "name": "balanceOf",
      "outputs": [
        {
          "internalType": "uint256",
          "name": "",
          "type": "uint256"
        }
      ],
      "stateMutability": "view",
      "type": "function",
      "constant": true
    },
    {
      "inputs": [
        {
          "internalType": "uint256",
          "name": "tokenId",
          "type": "uint256"
        }
      ],
      "name": "getApproved",
      "outputs": [
        {
          "internalType": "address",
          "name": "",
          "type": "address"
        }
      ],
      "stateMutability": "view",
      "type": "function",
      "constant": true
    },
    {
      "inputs": [
        {
          "internalType": "address",
          "name": "owner",
          "type": "address"
        },
        {
          "internalType": "address",
          "name": "operator",
          "type": "address"
        }
      ],
      "name": "isApprovedForAll",
      "outputs": [
        {
          "internalType": "bool",
          "name": "",
          "type": "bool"
        }
      ],
      "stateMutability": "view",
      "type": "function",
      "constant": true
    },
    {
      "inputs": [],
      "name": "isPresaleActive",
      "outputs": [
        {
          "internalType": "bool",
          "name": "",
          "type": "bool"
        }
      ],
      "stateMutability": "view",
      "type": "function",
      "constant": true
    },
    {
      "inputs": [],
      "name": "isSaleActive",
      "outputs": [
        {
          "internalType": "bool",
          "name": "",
          "type": "bool"
        }
      ],
      "stateMutability": "view",
      "type": "function",
      "constant": true
    },
    {
      "inputs": [],
      "name": "name",
      "outputs": [
        {
          "internalType": "string",
          "name": "",
          "type": "string"
        }
      ],
      "stateMutability": "view",
      "type": "function",
      "constant": true
    },
    {
      "inputs": [],
      "name": "owner",
      "outputs": [
        {
          "internalType": "address",
          "name": "",
          "type": "address"
        }
      ],
      "stateMutability": "view",
      "type": "function",
      "constant": true
    },
    {
      "inputs": [
        {
          "internalType": "uint256",
          "name": "tokenId",
          "type": "uint256"
        }
      ],
      "name": "ownerOf",
      "outputs": [
        {
          "internalType": "address",
          "name": "",
          "type": "address"
        }
      ],
      "stateMutability": "view",
      "type": "function",
      "constant": true
    },
    {
      "inputs": [],
      "name": "provenance",
      "outputs": [
        {
          "internalType": "string",
          "name": "",
          "type": "string"
        }
      ],
      "stateMutability": "view",
      "type": "function",
      "constant": true
    },
    {
      "inputs": [],
      "name": "renounceOwnership",
      "outputs": [],
      "stateMutability": "nonpayable",
      "type": "function"
    },
    {
      "inputs": [
        {
          "internalType": "address",
          "name": "from",
          "type": "address"
        },
        {
          "internalType": "address",
          "name": "to",
          "type": "address"
        },
        {
          "internalType": "uint256",
          "name": "tokenId",
          "type": "uint256"
        }
      ],
      "name": "safeTransferFrom",
      "outputs": [],
      "stateMutability": "nonpayable",
      "type": "function"
    },
    {
      "inputs": [
        {
          "internalType": "address",
          "name": "from",
          "type": "address"
        },
        {
          "internalType": "address",
          "name": "to",
          "type": "address"
        },
        {
          "internalType": "uint256",
          "name": "tokenId",
          "type": "uint256"
        },
        {
          "internalType": "bytes",
          "name": "_data",
          "type": "bytes"
        }
      ],
      "name": "safeTransferFrom",
      "outputs": [],
      "stateMutability": "nonpayable",
      "type": "function"
    },
    {
      "inputs": [
        {
          "internalType": "address",
          "name": "operator",
          "type": "address"
        },
        {
          "internalType": "bool",
          "name": "approved",
          "type": "bool"
        }
      ],
      "name": "setApprovalForAll",
      "outputs": [],
      "stateMutability": "nonpayable",
      "type": "function"
    },
    {
      "inputs": [
        {
          "internalType": "bytes4",
          "name": "interfaceId",
          "type": "bytes4"
        }
      ],
      "name": "supportsInterface",
      "outputs": [
        {
          "internalType": "bool",
          "name": "",
          "type": "bool"
        }
      ],
      "stateMutability": "view",
      "type": "function",
      "constant": true
    },
    {
      "inputs": [],
      "name": "symbol",
      "outputs": [
        {
          "internalType": "string",
          "name": "",
          "type": "string"
        }
      ],
      "stateMutability": "view",
      "type": "function",
      "constant": true
    },
    {
      "inputs": [
        {
          "internalType": "uint256",
          "name": "index",
          "type": "uint256"
        }
      ],
      "name": "tokenByIndex",
      "outputs": [
        {
          "internalType": "uint256",
          "name": "",
          "type": "uint256"
        }
      ],
      "stateMutability": "view",
      "type": "function",
      "constant": true
    },
    {
      "inputs": [
        {
          "internalType": "address",
          "name": "owner",
          "type": "address"
        },
        {
          "internalType": "uint256",
          "name": "index",
          "type": "uint256"
        }
      ],
      "name": "tokenOfOwnerByIndex",
      "outputs": [
        {
          "internalType": "uint256",
          "name": "",
          "type": "uint256"
        }
      ],
      "stateMutability": "view",
      "type": "function",
      "constant": true
    },
    {
      "inputs": [
        {
          "internalType": "uint256",
          "name": "tokenId",
          "type": "uint256"
        }
      ],
      "name": "tokenURI",
      "outputs": [
        {
          "internalType": "string",
          "name": "",
          "type": "string"
        }
      ],
      "stateMutability": "view",
      "type": "function",
      "constant": true
    },
    {
      "inputs": [],
      "name": "totalSupply",
      "outputs": [
        {
          "internalType": "uint256",
          "name": "",
          "type": "uint256"
        }
      ],
      "stateMutability": "view",
      "type": "function",
      "constant": true
    },
    {
      "inputs": [
        {
          "internalType": "address",
          "name": "from",
          "type": "address"
        },
        {
          "internalType": "address",
          "name": "to",
          "type": "address"
        },
        {
          "internalType": "uint256",
          "name": "tokenId",
          "type": "uint256"
        }
      ],
      "name": "transferFrom",
      "outputs": [],
      "stateMutability": "nonpayable",
      "type": "function"
    },
    {
      "inputs": [
        {
          "internalType": "address",
          "name": "newOwner",
          "type": "address"
        }
      ],
      "name": "transferOwnership",
      "outputs": [],
      "stateMutability": "nonpayable",
      "type": "function"
    },
    {
      "inputs": [
        {
          "internalType": "bool",
          "name": "_isPresaleActive",
          "type": "bool"
        }
      ],
      "name": "setPresaleState",
      "outputs": [],
      "stateMutability": "nonpayable",
      "type": "function"
    },
    {
      "inputs": [
        {
          "internalType": "address[]",
          "name": "addresses",
          "type": "address[]"
        },
        {
          "internalType": "uint256",
          "name": "numAllowedToMint",
          "type": "uint256"
        }
      ],
      "name": "setPresaleList",
      "outputs": [],
      "stateMutability": "nonpayable",
      "type": "function"
    },
    {
      "inputs": [
        {
          "internalType": "address",
          "name": "addr",
          "type": "address"
        }
      ],
      "name": "numAvailableToMint",
      "outputs": [
        {
          "internalType": "uint256",
          "name": "",
          "type": "uint256"
        }
      ],
      "stateMutability": "view",
      "type": "function",
      "constant": true
    },
    {
      "inputs": [
        {
          "internalType": "uint256",
          "name": "numberOfTokens",
          "type": "uint256"
        }
      ],
      "name": "mintPresale",
      "outputs": [],
      "stateMutability": "payable",
      "type": "function",
      "payable": true
    },
    {
      "inputs": [
        {
          "internalType": "string",
          "name": "baseURI_",
          "type": "string"
        }
      ],
      "name": "setBaseURI",
      "outputs": [],
      "stateMutability": "nonpayable",
      "type": "function"
    },
    {
      "inputs": [
        {
          "internalType": "string",
          "name": "provenance_",
          "type": "string"
        }
      ],
      "name": "setProvenance",
      "outputs": [],
      "stateMutability": "nonpayable",
      "type": "function"
    },
    {
      "inputs": [
        {
          "internalType": "uint256",
          "name": "numberOfTokens",
          "type": "uint256"
        }
      ],
      "name": "reserve",
      "outputs": [],
      "stateMutability": "nonpayable",
      "type": "function"
    },
    {
      "inputs": [
        {
          "internalType": "bool",
          "name": "_isSaleActive",
          "type": "bool"
        }
      ],
      "name": "setSaleState",
      "outputs": [],
      "stateMutability": "nonpayable",
      "type": "function"
    },
    {
      "inputs": [
        {
          "internalType": "uint256",
          "name": "numberOfTokens",
          "type": "uint256"
        }
      ],
      "name": "mint",
      "outputs": [],
      "stateMutability": "payable",
      "type": "function",
      "payable": true
    },
    {
      "inputs": [],
      "name": "withdraw",
      "outputs": [],
      "stateMutability": "nonpayable",
      "type": "function"
    }
  ],
  "bytecode": "0x60806040523480156200001157600080fd5b506040518060400160405280600781526020017f4b696464696573000000000000000000000000000000000000000000000000008152506040518060400160405280600781526020017f4b49444449455300000000000000000000000000000000000000000000000000815250816000908051906020019062000096929190620001a6565b508060019080519060200190620000af929190620001a6565b505050620000d2620000c6620000d860201b60201c565b620000e060201b60201c565b620002bb565b600033905090565b6000600a60009054906101000a900473ffffffffffffffffffffffffffffffffffffffff16905081600a60006101000a81548173ffffffffffffffffffffffffffffffffffffffff021916908373ffffffffffffffffffffffffffffffffffffffff1602179055508173ffffffffffffffffffffffffffffffffffffffff168173ffffffffffffffffffffffffffffffffffffffff167f8be0079c531659141344cd1fd0a4f28419497f9722a3daafe3b4186f6b6457e060405160405180910390a35050565b828054620001b49062000285565b90600052602060002090601f016020900481019282620001d8576000855562000224565b82601f10620001f357805160ff191683800117855562000224565b8280016001018555821562000224579182015b828111156200022357825182559160200191906001019062000206565b5b50905062000233919062000237565b5090565b5b808211156200025257600081600090555060010162000238565b5090565b7f4e487b7100000000000000000000000000000000000000000000000000000000600052602260045260246000fd5b600060028204905060018216806200029e57607f821691505b60208210811415620002b557620002b462000256565b5b50919050565b6146fd80620002cb6000396000f3fe6080604052600436106102045760003560e01c806365f1309711610118578063b88d4fde116100a0578063c87b56dd1161006f578063c87b56dd14610746578063e985e9c514610783578063f2fde38b146107c0578063f759867a146107e9578063ffe630b51461080557610204565b8063b88d4fde1461068e578063bce4d6ae146106b7578063c04a2836146106e0578063c4e370951461071d57610204565b8063833b9499116100e7578063833b9499146105c85780638da5cb5b146105f357806395d89b411461061e578063a0712d6814610649578063a22cb4651461066557610204565b806365f130971461052057806370a082311461054b578063715018a614610588578063819b25ba1461059f57610204565b806332cb6b0c1161019b57806352c54ae11161016a57806352c54ae11461043b57806355f804b314610464578063564566a81461048d57806360d938dc146104b85780636352211e146104e357610204565b806332cb6b0c146103935780633ccfd60b146103be57806342842e0e146103d55780634f6ccce7146103fe57610204565b80630f7309e8116101d75780630f7309e8146102d757806318160ddd1461030257806323b872dd1461032d5780632f745c591461035657610204565b806301ffc9a71461020957806306fdde0314610246578063081812fc14610271578063095ea7b3146102ae575b600080fd5b34801561021557600080fd5b50610230600480360381019061022b9190612ebe565b61082e565b60405161023d9190612f06565b60405180910390f35b34801561025257600080fd5b5061025b6108a8565b6040516102689190612fba565b60405180910390f35b34801561027d57600080fd5b5061029860048036038101906102939190613012565b61093a565b6040516102a59190613080565b60405180910390f35b3480156102ba57600080fd5b506102d560048036038101906102d091906130c7565b6109bf565b005b3480156102e357600080fd5b506102ec610ad7565b6040516102f99190612fba565b60405180910390f35b34801561030e57600080fd5b50610317610b65565b6040516103249190613116565b60405180910390f35b34801561033957600080fd5b50610354600480360381019061034f9190613131565b610b72565b005b34801561036257600080fd5b5061037d600480360381019061037891906130c7565b610bd2565b60405161038a9190613116565b60405180910390f35b34801561039f57600080fd5b506103a8610c77565b6040516103b59190613116565b60405180910390f35b3480156103ca57600080fd5b506103d3610c7d565b005b3480156103e157600080fd5b506103fc60048036038101906103f79190613131565b610d48565b005b34801561040a57600080fd5b5061042560048036038101906104209190613012565b610d68565b6040516104329190613116565b60405180910390f35b34801561044757600080fd5b50610462600480360381019061045d91906131e9565b610dd9565b005b34801561047057600080fd5b5061048b60048036038101906104869190613379565b610ee7565b005b34801561049957600080fd5b506104a2610f7d565b6040516104af9190612f06565b60405180910390f35b3480156104c457600080fd5b506104cd610f90565b6040516104da9190612f06565b60405180910390f35b3480156104ef57600080fd5b5061050a60048036038101906105059190613012565b610fa3565b6040516105179190613080565b60405180910390f35b34801561052c57600080fd5b50610535611055565b6040516105429190613116565b60405180910390f35b34801561055757600080fd5b50610572600480360381019061056d91906133c2565b61105a565b60405161057f9190613116565b60405180910390f35b34801561059457600080fd5b5061059d611112565b005b3480156105ab57600080fd5b506105c660048036038101906105c19190613012565b61119a565b005b3480156105d457600080fd5b506105dd61125a565b6040516105ea9190613116565b60405180910390f35b3480156105ff57600080fd5b50610608611266565b6040516106159190613080565b60405180910390f35b34801561062a57600080fd5b50610633611290565b6040516106409190612fba565b60405180910390f35b610663600480360381019061065e9190613012565b611322565b005b34801561067157600080fd5b5061068c6004803603810190610687919061341b565b61149f565b005b34801561069a57600080fd5b506106b560048036038101906106b091906134fc565b611620565b005b3480156106c357600080fd5b506106de60048036038101906106d9919061357f565b611682565b005b3480156106ec57600080fd5b50610707600480360381019061070291906133c2565b61171b565b6040516107149190613116565b60405180910390f35b34801561072957600080fd5b50610744600480360381019061073f919061357f565b611764565b005b34801561075257600080fd5b5061076d60048036038101906107689190613012565b6117fd565b60405161077a9190612fba565b60405180910390f35b34801561078f57600080fd5b506107aa60048036038101906107a591906135ac565b6118a4565b6040516107b79190612f06565b60405180910390f35b3480156107cc57600080fd5b506107e760048036038101906107e291906133c2565b611938565b005b61080360048036038101906107fe9190613012565b611a30565b005b34801561081157600080fd5b5061082c60048036038101906108279190613379565b611c41565b005b60007f780e9d63000000000000000000000000000000000000000000000000000000007bffffffffffffffffffffffffffffffffffffffffffffffffffffffff1916827bffffffffffffffffffffffffffffffffffffffffffffffffffffffff191614806108a157506108a082611cd7565b5b9050919050565b6060600080546108b79061361b565b80601f01602080910402602001604051908101604052809291908181526020018280546108e39061361b565b80156109305780601f1061090557610100808354040283529160200191610930565b820191906000526020600020905b81548152906001019060200180831161091357829003601f168201915b5050505050905090565b600061094582611db9565b610984576040517f08c379a000000000000000000000000000000000000000000000000000000000815260040161097b906136bf565b60405180910390fd5b6004600083815260200190815260200160002060009054906101000a900473ffffffffffffffffffffffffffffffffffffffff169050919050565b60006109ca82610fa3565b90508073ffffffffffffffffffffffffffffffffffffffff168373ffffffffffffffffffffffffffffffffffffffff161415610a3b576040517f08c379a0000000000000000000000000000000000000000000000000000000008152600401610a3290613751565b60405180910390fd5b8073ffffffffffffffffffffffffffffffffffffffff16610a5a611e25565b73ffffffffffffffffffffffffffffffffffffffff161480610a895750610a8881610a83611e25565b6118a4565b5b610ac8576040517f08c379a0000000000000000000000000000000000000000000000000000000008152600401610abf906137e3565b60405180910390fd5b610ad28383611e2d565b505050565b600b8054610ae49061361b565b80601f0160208091040260200160405190810160405280929190818152602001828054610b109061361b565b8015610b5d5780601f10610b3257610100808354040283529160200191610b5d565b820191906000526020600020905b815481529060010190602001808311610b4057829003601f168201915b505050505081565b6000600880549050905090565b610b83610b7d611e25565b82611ee6565b610bc2576040517f08c379a0000000000000000000000000000000000000000000000000000000008152600401610bb990613875565b60405180910390fd5b610bcd838383611fc4565b505050565b6000610bdd8361105a565b8210610c1e576040517f08c379a0000000000000000000000000000000000000000000000000000000008152600401610c1590613907565b60405180910390fd5b600660008473ffffffffffffffffffffffffffffffffffffffff1673ffffffffffffffffffffffffffffffffffffffff168152602001908152602001600020600083815260200190815260200160002054905092915050565b61271081565b610c85611e25565b73ffffffffffffffffffffffffffffffffffffffff16610ca3611266565b73ffffffffffffffffffffffffffffffffffffffff1614610cf9576040517f08c379a0000000000000000000000000000000000000000000000000000000008152600401610cf090613973565b60405180910390fd5b60004790503373ffffffffffffffffffffffffffffffffffffffff166108fc829081150290604051600060405180830381858888f19350505050158015610d44573d6000803e3d6000fd5b5050565b610d6383838360405180602001604052806000815250611620565b505050565b6000610d72610b65565b8210610db3576040517f08c379a0000000000000000000000000000000000000000000000000000000008152600401610daa90613a05565b60405180910390fd5b60088281548110610dc757610dc6613a25565b5b90600052602060002001549050919050565b610de1611e25565b73ffffffffffffffffffffffffffffffffffffffff16610dff611266565b73ffffffffffffffffffffffffffffffffffffffff1614610e55576040517f08c379a0000000000000000000000000000000000000000000000000000000008152600401610e4c90613973565b60405180910390fd5b60005b83839050811015610ee15781600e6000868685818110610e7b57610e7a613a25565b5b9050602002016020810190610e9091906133c2565b73ffffffffffffffffffffffffffffffffffffffff1673ffffffffffffffffffffffffffffffffffffffff168152602001908152602001600020819055508080610ed990613a83565b915050610e58565b50505050565b610eef611e25565b73ffffffffffffffffffffffffffffffffffffffff16610f0d611266565b73ffffffffffffffffffffffffffffffffffffffff1614610f63576040517f08c379a0000000000000000000000000000000000000000000000000000000008152600401610f5a90613973565b60405180910390fd5b80600d9080519060200190610f79929190612daf565b5050565b600c60019054906101000a900460ff1681565b600c60009054906101000a900460ff1681565b6000806002600084815260200190815260200160002060009054906101000a900473ffffffffffffffffffffffffffffffffffffffff169050600073ffffffffffffffffffffffffffffffffffffffff168173ffffffffffffffffffffffffffffffffffffffff16141561104c576040517f08c379a000000000000000000000000000000000000000000000000000000000815260040161104390613b3e565b60405180910390fd5b80915050919050565b600a81565b60008073ffffffffffffffffffffffffffffffffffffffff168273ffffffffffffffffffffffffffffffffffffffff1614156110cb576040517f08c379a00000000000000000000000000000000000000000000000000000000081526004016110c290613bd0565b60405180910390fd5b600360008373ffffffffffffffffffffffffffffffffffffffff1673ffffffffffffffffffffffffffffffffffffffff168152602001908152602001600020549050919050565b61111a611e25565b73ffffffffffffffffffffffffffffffffffffffff16611138611266565b73ffffffffffffffffffffffffffffffffffffffff161461118e576040517f08c379a000000000000000000000000000000000000000000000000000000000815260040161118590613973565b60405180910390fd5b6111986000612220565b565b6111a2611e25565b73ffffffffffffffffffffffffffffffffffffffff166111c0611266565b73ffffffffffffffffffffffffffffffffffffffff1614611216576040517f08c379a000000000000000000000000000000000000000000000000000000000815260040161120d90613973565b60405180910390fd5b6000611220610b65565b905060005b828110156112555761124233828461123d9190613bf0565b6122e6565b808061124d90613a83565b915050611225565b505050565b67013fbe85edc9000081565b6000600a60009054906101000a900473ffffffffffffffffffffffffffffffffffffffff16905090565b60606001805461129f9061361b565b80601f01602080910402602001604051908101604052809291908181526020018280546112cb9061361b565b80156113185780601f106112ed57610100808354040283529160200191611318565b820191906000526020600020905b8154815290600101906020018083116112fb57829003601f168201915b5050505050905090565b600061132c610b65565b9050600c60019054906101000a900460ff1661137d576040517f08c379a000000000000000000000000000000000000000000000000000000000815260040161137490613cb8565b60405180910390fd5b600a8211156113c1576040517f08c379a00000000000000000000000000000000000000000000000000000000081526004016113b890613d24565b60405180910390fd5b61271082826113d09190613bf0565b1115611411576040517f08c379a000000000000000000000000000000000000000000000000000000000815260040161140890613d90565b60405180910390fd5b348267013fbe85edc900006114269190613db0565b1115611467576040517f08c379a000000000000000000000000000000000000000000000000000000000815260040161145e90613e56565b60405180910390fd5b60005b8281101561149a576114873382846114829190613bf0565b6122e6565b808061149290613a83565b91505061146a565b505050565b6114a7611e25565b73ffffffffffffffffffffffffffffffffffffffff168273ffffffffffffffffffffffffffffffffffffffff161415611515576040517f08c379a000000000000000000000000000000000000000000000000000000000815260040161150c90613ec2565b60405180910390fd5b8060056000611522611e25565b73ffffffffffffffffffffffffffffffffffffffff1673ffffffffffffffffffffffffffffffffffffffff16815260200190815260200160002060008473ffffffffffffffffffffffffffffffffffffffff1673ffffffffffffffffffffffffffffffffffffffff16815260200190815260200160002060006101000a81548160ff0219169083151502179055508173ffffffffffffffffffffffffffffffffffffffff166115cf611e25565b73ffffffffffffffffffffffffffffffffffffffff167f17307eab39ab6107e8899845ad3d59bd9653f200f220920489ca2b5937696c31836040516116149190612f06565b60405180910390a35050565b61163161162b611e25565b83611ee6565b611670576040517f08c379a000000000000000000000000000000000000000000000000000000000815260040161166790613875565b60405180910390fd5b61167c84848484612304565b50505050565b61168a611e25565b73ffffffffffffffffffffffffffffffffffffffff166116a8611266565b73ffffffffffffffffffffffffffffffffffffffff16146116fe576040517f08c379a00000000000000000000000000000000000000000000000000000000081526004016116f590613973565b60405180910390fd5b80600c60006101000a81548160ff02191690831515021790555050565b6000600e60008373ffffffffffffffffffffffffffffffffffffffff1673ffffffffffffffffffffffffffffffffffffffff168152602001908152602001600020549050919050565b61176c611e25565b73ffffffffffffffffffffffffffffffffffffffff1661178a611266565b73ffffffffffffffffffffffffffffffffffffffff16146117e0576040517f08c379a00000000000000000000000000000000000000000000000000000000081526004016117d790613973565b60405180910390fd5b80600c60016101000a81548160ff02191690831515021790555050565b606061180882611db9565b611847576040517f08c379a000000000000000000000000000000000000000000000000000000000815260040161183e90613f54565b60405180910390fd5b6000611851612360565b90506000815111611871576040518060200160405280600081525061189c565b8061187b846123f2565b60405160200161188c929190613fb0565b6040516020818303038152906040525b915050919050565b6000600560008473ffffffffffffffffffffffffffffffffffffffff1673ffffffffffffffffffffffffffffffffffffffff16815260200190815260200160002060008373ffffffffffffffffffffffffffffffffffffffff1673ffffffffffffffffffffffffffffffffffffffff16815260200190815260200160002060009054906101000a900460ff16905092915050565b611940611e25565b73ffffffffffffffffffffffffffffffffffffffff1661195e611266565b73ffffffffffffffffffffffffffffffffffffffff16146119b4576040517f08c379a00000000000000000000000000000000000000000000000000000000081526004016119ab90613973565b60405180910390fd5b600073ffffffffffffffffffffffffffffffffffffffff168173ffffffffffffffffffffffffffffffffffffffff161415611a24576040517f08c379a0000000000000000000000000000000000000000000000000000000008152600401611a1b90614046565b60405180910390fd5b611a2d81612220565b50565b6000611a3a610b65565b9050600c60009054906101000a900460ff16611a8b576040517f08c379a0000000000000000000000000000000000000000000000000000000008152600401611a82906140b2565b60405180910390fd5b600e60003373ffffffffffffffffffffffffffffffffffffffff1673ffffffffffffffffffffffffffffffffffffffff16815260200190815260200160002054821115611b0d576040517f08c379a0000000000000000000000000000000000000000000000000000000008152600401611b0490614144565b60405180910390fd5b6127108282611b1c9190613bf0565b1115611b5d576040517f08c379a0000000000000000000000000000000000000000000000000000000008152600401611b5490613d90565b60405180910390fd5b348267013fbe85edc90000611b729190613db0565b1115611bb3576040517f08c379a0000000000000000000000000000000000000000000000000000000008152600401611baa906141b0565b60405180910390fd5b81600e60003373ffffffffffffffffffffffffffffffffffffffff1673ffffffffffffffffffffffffffffffffffffffff1681526020019081526020016000206000828254611c0291906141d0565b9250508190555060005b82811015611c3c57611c29338284611c249190613bf0565b6122e6565b8080611c3490613a83565b915050611c0c565b505050565b611c49611e25565b73ffffffffffffffffffffffffffffffffffffffff16611c67611266565b73ffffffffffffffffffffffffffffffffffffffff1614611cbd576040517f08c379a0000000000000000000000000000000000000000000000000000000008152600401611cb490613973565b60405180910390fd5b80600b9080519060200190611cd3929190612daf565b5050565b60007f80ac58cd000000000000000000000000000000000000000000000000000000007bffffffffffffffffffffffffffffffffffffffffffffffffffffffff1916827bffffffffffffffffffffffffffffffffffffffffffffffffffffffff19161480611da257507f5b5e139f000000000000000000000000000000000000000000000000000000007bffffffffffffffffffffffffffffffffffffffffffffffffffffffff1916827bffffffffffffffffffffffffffffffffffffffffffffffffffffffff1916145b80611db25750611db182612553565b5b9050919050565b60008073ffffffffffffffffffffffffffffffffffffffff166002600084815260200190815260200160002060009054906101000a900473ffffffffffffffffffffffffffffffffffffffff1673ffffffffffffffffffffffffffffffffffffffff1614159050919050565b600033905090565b816004600083815260200190815260200160002060006101000a81548173ffffffffffffffffffffffffffffffffffffffff021916908373ffffffffffffffffffffffffffffffffffffffff160217905550808273ffffffffffffffffffffffffffffffffffffffff16611ea083610fa3565b73ffffffffffffffffffffffffffffffffffffffff167f8c5be1e5ebec7d5bd14f71427d1e84f3dd0314c0f7b2291e5b200ac8c7c3b92560405160405180910390a45050565b6000611ef182611db9565b611f30576040517f08c379a0000000000000000000000000000000000000000000000000000000008152600401611f2790614276565b60405180910390fd5b6000611f3b83610fa3565b90508073ffffffffffffffffffffffffffffffffffffffff168473ffffffffffffffffffffffffffffffffffffffff161480611faa57508373ffffffffffffffffffffffffffffffffffffffff16611f928461093a565b73ffffffffffffffffffffffffffffffffffffffff16145b80611fbb5750611fba81856118a4565b5b91505092915050565b8273ffffffffffffffffffffffffffffffffffffffff16611fe482610fa3565b73ffffffffffffffffffffffffffffffffffffffff161461203a576040517f08c379a000000000000000000000000000000000000000000000000000000000815260040161203190614308565b60405180910390fd5b600073ffffffffffffffffffffffffffffffffffffffff168273ffffffffffffffffffffffffffffffffffffffff1614156120aa576040517f08c379a00000000000000000000000000000000000000000000000000000000081526004016120a19061439a565b60405180910390fd5b6120b58383836125bd565b6120c0600082611e2d565b6001600360008573ffffffffffffffffffffffffffffffffffffffff1673ffffffffffffffffffffffffffffffffffffffff168152602001908152602001600020600082825461211091906141d0565b925050819055506001600360008473ffffffffffffffffffffffffffffffffffffffff1673ffffffffffffffffffffffffffffffffffffffff16815260200190815260200160002060008282546121679190613bf0565b92505081905550816002600083815260200190815260200160002060006101000a81548173ffffffffffffffffffffffffffffffffffffffff021916908373ffffffffffffffffffffffffffffffffffffffff160217905550808273ffffffffffffffffffffffffffffffffffffffff168473ffffffffffffffffffffffffffffffffffffffff167fddf252ad1be2c89b69c2b068fc378daa952ba7f163c4a11628f55a4df523b3ef60405160405180910390a4505050565b6000600a60009054906101000a900473ffffffffffffffffffffffffffffffffffffffff16905081600a60006101000a81548173ffffffffffffffffffffffffffffffffffffffff021916908373ffffffffffffffffffffffffffffffffffffffff1602179055508173ffffffffffffffffffffffffffffffffffffffff168173ffffffffffffffffffffffffffffffffffffffff167f8be0079c531659141344cd1fd0a4f28419497f9722a3daafe3b4186f6b6457e060405160405180910390a35050565b6123008282604051806020016040528060008152506126d1565b5050565b61230f848484611fc4565b61231b8484848461272c565b61235a576040517f08c379a00000000000000000000000000000000000000000000000000000000081526004016123519061442c565b60405180910390fd5b50505050565b6060600d805461236f9061361b565b80601f016020809104026020016040519081016040528092919081815260200182805461239b9061361b565b80156123e85780601f106123bd576101008083540402835291602001916123e8565b820191906000526020600020905b8154815290600101906020018083116123cb57829003601f168201915b5050505050905090565b6060600082141561243a576040518060400160405280600181526020017f3000000000000000000000000000000000000000000000000000000000000000815250905061254e565b600082905060005b6000821461246c57808061245590613a83565b915050600a82612465919061447b565b9150612442565b60008167ffffffffffffffff8111156124885761248761324e565b5b6040519080825280601f01601f1916602001820160405280156124ba5781602001600182028036833780820191505090505b5090505b60008514612547576001826124d391906141d0565b9150600a856124e291906144ac565b60306124ee9190613bf0565b60f81b81838151811061250457612503613a25565b5b60200101907effffffffffffffffffffffffffffffffffffffffffffffffffffffffffffff1916908160001a905350600a85612540919061447b565b94506124be565b8093505050505b919050565b60007f01ffc9a7000000000000000000000000000000000000000000000000000000007bffffffffffffffffffffffffffffffffffffffffffffffffffffffff1916827bffffffffffffffffffffffffffffffffffffffffffffffffffffffff1916149050919050565b6125c88383836128c3565b600073ffffffffffffffffffffffffffffffffffffffff168373ffffffffffffffffffffffffffffffffffffffff16141561260b57612606816128c8565b61264a565b8173ffffffffffffffffffffffffffffffffffffffff168373ffffffffffffffffffffffffffffffffffffffff1614612649576126488382612911565b5b5b600073ffffffffffffffffffffffffffffffffffffffff168273ffffffffffffffffffffffffffffffffffffffff16141561268d5761268881612a7e565b6126cc565b8273ffffffffffffffffffffffffffffffffffffffff168273ffffffffffffffffffffffffffffffffffffffff16146126cb576126ca8282612b4f565b5b5b505050565b6126db8383612bce565b6126e8600084848461272c565b612727576040517f08c379a000000000000000000000000000000000000000000000000000000000815260040161271e9061442c565b60405180910390fd5b505050565b600061274d8473ffffffffffffffffffffffffffffffffffffffff16612d9c565b156128b6578373ffffffffffffffffffffffffffffffffffffffff1663150b7a02612776611e25565b8786866040518563ffffffff1660e01b81526004016127989493929190614532565b602060405180830381600087803b1580156127b257600080fd5b505af19250505080156127e357506040513d601f19601f820116820180604052508101906127e09190614593565b60015b612866573d8060008114612813576040519150601f19603f3d011682016040523d82523d6000602084013e612818565b606091505b5060008151141561285e576040517f08c379a00000000000000000000000000000000000000000000000000000000081526004016128559061442c565b60405180910390fd5b805181602001fd5b63150b7a0260e01b7bffffffffffffffffffffffffffffffffffffffffffffffffffffffff1916817bffffffffffffffffffffffffffffffffffffffffffffffffffffffff1916149150506128bb565b600190505b949350505050565b505050565b6008805490506009600083815260200190815260200160002081905550600881908060018154018082558091505060019003906000526020600020016000909190919091505550565b6000600161291e8461105a565b61292891906141d0565b9050600060076000848152602001908152602001600020549050818114612a0d576000600660008673ffffffffffffffffffffffffffffffffffffffff1673ffffffffffffffffffffffffffffffffffffffff168152602001908152602001600020600084815260200190815260200160002054905080600660008773ffffffffffffffffffffffffffffffffffffffff1673ffffffffffffffffffffffffffffffffffffffff168152602001908152602001600020600084815260200190815260200160002081905550816007600083815260200190815260200160002081905550505b6007600084815260200190815260200160002060009055600660008573ffffffffffffffffffffffffffffffffffffffff1673ffffffffffffffffffffffffffffffffffffffff16815260200190815260200160002060008381526020019081526020016000206000905550505050565b60006001600880549050612a9291906141d0565b9050600060096000848152602001908152602001600020549050600060088381548110612ac257612ac1613a25565b5b906000526020600020015490508060088381548110612ae457612ae3613a25565b5b906000526020600020018190555081600960008381526020019081526020016000208190555060096000858152602001908152602001600020600090556008805480612b3357612b326145c0565b5b6001900381819060005260206000200160009055905550505050565b6000612b5a8361105a565b905081600660008573ffffffffffffffffffffffffffffffffffffffff1673ffffffffffffffffffffffffffffffffffffffff168152602001908152602001600020600083815260200190815260200160002081905550806007600084815260200190815260200160002081905550505050565b600073ffffffffffffffffffffffffffffffffffffffff168273ffffffffffffffffffffffffffffffffffffffff161415612c3e576040517f08c379a0000000000000000000000000000000000000000000000000000000008152600401612c359061463b565b60405180910390fd5b612c4781611db9565b15612c87576040517f08c379a0000000000000000000000000000000000000000000000000000000008152600401612c7e906146a7565b60405180910390fd5b612c93600083836125bd565b6001600360008473ffffffffffffffffffffffffffffffffffffffff1673ffffffffffffffffffffffffffffffffffffffff1681526020019081526020016000206000828254612ce39190613bf0565b92505081905550816002600083815260200190815260200160002060006101000a81548173ffffffffffffffffffffffffffffffffffffffff021916908373ffffffffffffffffffffffffffffffffffffffff160217905550808273ffffffffffffffffffffffffffffffffffffffff16600073ffffffffffffffffffffffffffffffffffffffff167fddf252ad1be2c89b69c2b068fc378daa952ba7f163c4a11628f55a4df523b3ef60405160405180910390a45050565b600080823b905060008111915050919050565b828054612dbb9061361b565b90600052602060002090601f016020900481019282612ddd5760008555612e24565b82601f10612df657805160ff1916838001178555612e24565b82800160010185558215612e24579182015b82811115612e23578251825591602001919060010190612e08565b5b509050612e319190612e35565b5090565b5b80821115612e4e576000816000905550600101612e36565b5090565b6000604051905090565b600080fd5b600080fd5b60007fffffffff0000000000000000000000000000000000000000000000000000000082169050919050565b612e9b81612e66565b8114612ea657600080fd5b50565b600081359050612eb881612e92565b92915050565b600060208284031215612ed457612ed3612e5c565b5b6000612ee284828501612ea9565b91505092915050565b60008115159050919050565b612f0081612eeb565b82525050565b6000602082019050612f1b6000830184612ef7565b92915050565b600081519050919050565b600082825260208201905092915050565b60005b83811015612f5b578082015181840152602081019050612f40565b83811115612f6a576000848401525b50505050565b6000601f19601f8301169050919050565b6000612f8c82612f21565b612f968185612f2c565b9350612fa6818560208601612f3d565b612faf81612f70565b840191505092915050565b60006020820190508181036000830152612fd48184612f81565b905092915050565b6000819050919050565b612fef81612fdc565b8114612ffa57600080fd5b50565b60008135905061300c81612fe6565b92915050565b60006020828403121561302857613027612e5c565b5b600061303684828501612ffd565b91505092915050565b600073ffffffffffffffffffffffffffffffffffffffff82169050919050565b600061306a8261303f565b9050919050565b61307a8161305f565b82525050565b60006020820190506130956000830184613071565b92915050565b6130a48161305f565b81146130af57600080fd5b50565b6000813590506130c18161309b565b92915050565b600080604083850312156130de576130dd612e5c565b5b60006130ec858286016130b2565b92505060206130fd85828601612ffd565b9150509250929050565b61311081612fdc565b82525050565b600060208201905061312b6000830184613107565b92915050565b60008060006060848603121561314a57613149612e5c565b5b6000613158868287016130b2565b9350506020613169868287016130b2565b925050604061317a86828701612ffd565b9150509250925092565b600080fd5b600080fd5b600080fd5b60008083601f8401126131a9576131a8613184565b5b8235905067ffffffffffffffff8111156131c6576131c5613189565b5b6020830191508360208202830111156131e2576131e161318e565b5b9250929050565b60008060006040848603121561320257613201612e5c565b5b600084013567ffffffffffffffff8111156132205761321f612e61565b5b61322c86828701613193565b9350935050602061323f86828701612ffd565b9150509250925092565b600080fd5b7f4e487b7100000000000000000000000000000000000000000000000000000000600052604160045260246000fd5b61328682612f70565b810181811067ffffffffffffffff821117156132a5576132a461324e565b5b80604052505050565b60006132b8612e52565b90506132c4828261327d565b919050565b600067ffffffffffffffff8211156132e4576132e361324e565b5b6132ed82612f70565b9050602081019050919050565b82818337600083830152505050565b600061331c613317846132c9565b6132ae565b90508281526020810184848401111561333857613337613249565b5b6133438482856132fa565b509392505050565b600082601f8301126133605761335f613184565b5b8135613370848260208601613309565b91505092915050565b60006020828403121561338f5761338e612e5c565b5b600082013567ffffffffffffffff8111156133ad576133ac612e61565b5b6133b98482850161334b565b91505092915050565b6000602082840312156133d8576133d7612e5c565b5b60006133e6848285016130b2565b91505092915050565b6133f881612eeb565b811461340357600080fd5b50565b600081359050613415816133ef565b92915050565b6000806040838503121561343257613431612e5c565b5b6000613440858286016130b2565b925050602061345185828601613406565b9150509250929050565b600067ffffffffffffffff8211156134765761347561324e565b5b61347f82612f70565b9050602081019050919050565b600061349f61349a8461345b565b6132ae565b9050828152602081018484840111156134bb576134ba613249565b5b6134c68482856132fa565b509392505050565b600082601f8301126134e3576134e2613184565b5b81356134f384826020860161348c565b91505092915050565b6000806000806080858703121561351657613515612e5c565b5b6000613524878288016130b2565b9450506020613535878288016130b2565b935050604061354687828801612ffd565b925050606085013567ffffffffffffffff81111561356757613566612e61565b5b613573878288016134ce565b91505092959194509250565b60006020828403121561359557613594612e5c565b5b60006135a384828501613406565b91505092915050565b600080604083850312156135c3576135c2612e5c565b5b60006135d1858286016130b2565b92505060206135e2858286016130b2565b9150509250929050565b7f4e487b7100000000000000000000000000000000000000000000000000000000600052602260045260246000fd5b6000600282049050600182168061363357607f821691505b60208210811415613647576136466135ec565b5b50919050565b7f4552433732313a20617070726f76656420717565727920666f72206e6f6e657860008201527f697374656e7420746f6b656e0000000000000000000000000000000000000000602082015250565b60006136a9602c83612f2c565b91506136b48261364d565b604082019050919050565b600060208201905081810360008301526136d88161369c565b9050919050565b7f4552433732313a20617070726f76616c20746f2063757272656e74206f776e6560008201527f7200000000000000000000000000000000000000000000000000000000000000602082015250565b600061373b602183612f2c565b9150613746826136df565b604082019050919050565b6000602082019050818103600083015261376a8161372e565b9050919050565b7f4552433732313a20617070726f76652063616c6c6572206973206e6f74206f7760008201527f6e6572206e6f7220617070726f76656420666f7220616c6c0000000000000000602082015250565b60006137cd603883612f2c565b91506137d882613771565b604082019050919050565b600060208201905081810360008301526137fc816137c0565b9050919050565b7f4552433732313a207472616e736665722063616c6c6572206973206e6f74206f60008201527f776e6572206e6f7220617070726f766564000000000000000000000000000000602082015250565b600061385f603183612f2c565b915061386a82613803565b604082019050919050565b6000602082019050818103600083015261388e81613852565b9050919050565b7f455243373231456e756d657261626c653a206f776e657220696e646578206f7560008201527f74206f6620626f756e6473000000000000000000000000000000000000000000602082015250565b60006138f1602b83612f2c565b91506138fc82613895565b604082019050919050565b60006020820190508181036000830152613920816138e4565b9050919050565b7f4f776e61626c653a2063616c6c6572206973206e6f7420746865206f776e6572600082015250565b600061395d602083612f2c565b915061396882613927565b602082019050919050565b6000602082019050818103600083015261398c81613950565b9050919050565b7f455243373231456e756d657261626c653a20676c6f62616c20696e646578206f60008201527f7574206f6620626f756e64730000000000000000000000000000000000000000602082015250565b60006139ef602c83612f2c565b91506139fa82613993565b604082019050919050565b60006020820190508181036000830152613a1e816139e2565b9050919050565b7f4e487b7100000000000000000000000000000000000000000000000000000000600052603260045260246000fd5b7f4e487b7100000000000000000000000000000000000000000000000000000000600052601160045260246000fd5b6000613a8e82612fdc565b91507fffffffffffffffffffffffffffffffffffffffffffffffffffffffffffffffff821415613ac157613ac0613a54565b5b600182019050919050565b7f4552433732313a206f776e657220717565727920666f72206e6f6e657869737460008201527f656e7420746f6b656e0000000000000000000000000000000000000000000000602082015250565b6000613b28602983612f2c565b9150613b3382613acc565b604082019050919050565b60006020820190508181036000830152613b5781613b1b565b9050919050565b7f4552433732313a2062616c616e636520717565727920666f7220746865207a6560008201527f726f206164647265737300000000000000000000000000000000000000000000602082015250565b6000613bba602a83612f2c565b9150613bc582613b5e565b604082019050919050565b60006020820190508181036000830152613be981613bad565b9050919050565b6000613bfb82612fdc565b9150613c0683612fdc565b9250827fffffffffffffffffffffffffffffffffffffffffffffffffffffffffffffffff03821115613c3b57613c3a613a54565b5b828201905092915050565b7f53616c65206d7573742062652061637469766520696e206f7264657220746f2060008201527f6d696e7400000000000000000000000000000000000000000000000000000000602082015250565b6000613ca2602483612f2c565b9150613cad82613c46565b604082019050919050565b60006020820190508181036000830152613cd181613c95565b9050919050565b7f4578636565646564206e756d626572206f66206d696e747320616c6c6f776564600082015250565b6000613d0e602083612f2c565b9150613d1982613cd8565b602082019050919050565b60006020820190508181036000830152613d3d81613d01565b9050919050565b7f507572636861736520776f756c6420657863656564206d617820737570706c79600082015250565b6000613d7a602083612f2c565b9150613d8582613d44565b602082019050919050565b60006020820190508181036000830152613da981613d6d565b9050919050565b6000613dbb82612fdc565b9150613dc683612fdc565b9250817fffffffffffffffffffffffffffffffffffffffffffffffffffffffffffffffff0483118215151615613dff57613dfe613a54565b5b828202905092915050565b7f45746865722076616c75652073656e7420697320696e636f7272656374000000600082015250565b6000613e40601d83612f2c565b9150613e4b82613e0a565b602082019050919050565b60006020820190508181036000830152613e6f81613e33565b9050919050565b7f4552433732313a20617070726f766520746f2063616c6c657200000000000000600082015250565b6000613eac601983612f2c565b9150613eb782613e76565b602082019050919050565b60006020820190508181036000830152613edb81613e9f565b9050919050565b7f4552433732314d657461646174613a2055524920717565727920666f72206e6f60008201527f6e6578697374656e7420746f6b656e0000000000000000000000000000000000602082015250565b6000613f3e602f83612f2c565b9150613f4982613ee2565b604082019050919050565b60006020820190508181036000830152613f6d81613f31565b9050919050565b600081905092915050565b6000613f8a82612f21565b613f948185613f74565b9350613fa4818560208601612f3d565b80840191505092915050565b6000613fbc8285613f7f565b9150613fc88284613f7f565b91508190509392505050565b7f4f776e61626c653a206e6577206f776e657220697320746865207a65726f206160008201527f6464726573730000000000000000000000000000000000000000000000000000602082015250565b6000614030602683612f2c565b915061403b82613fd4565b604082019050919050565b6000602082019050818103600083015261405f81614023565b9050919050565b7f50726573616c65206973206e6f74206163746976650000000000000000000000600082015250565b600061409c601583612f2c565b91506140a782614066565b602082019050919050565b600060208201905081810360008301526140cb8161408f565b9050919050565b7f4578636565646564206e756d626572206f66206d696e747320616c6c6f77656460008201527f20666f722070726573616c650000000000000000000000000000000000000000602082015250565b600061412e602c83612f2c565b9150614139826140d2565b604082019050919050565b6000602082019050818103600083015261415d81614121565b9050919050565b7f45746865722076616c75652073656e7420696e636f7272656374000000000000600082015250565b600061419a601a83612f2c565b91506141a582614164565b602082019050919050565b600060208201905081810360008301526141c98161418d565b9050919050565b60006141db82612fdc565b91506141e683612fdc565b9250828210156141f9576141f8613a54565b5b828203905092915050565b7f4552433732313a206f70657261746f7220717565727920666f72206e6f6e657860008201527f697374656e7420746f6b656e0000000000000000000000000000000000000000602082015250565b6000614260602c83612f2c565b915061426b82614204565b604082019050919050565b6000602082019050818103600083015261428f81614253565b9050919050565b7f4552433732313a207472616e73666572206f6620746f6b656e2074686174206960008201527f73206e6f74206f776e0000000000000000000000000000000000000000000000602082015250565b60006142f2602983612f2c565b91506142fd82614296565b604082019050919050565b60006020820190508181036000830152614321816142e5565b9050919050565b7f4552433732313a207472616e7366657220746f20746865207a65726f2061646460008201527f7265737300000000000000000000000000000000000000000000000000000000602082015250565b6000614384602483612f2c565b915061438f82614328565b604082019050919050565b600060208201905081810360008301526143b381614377565b9050919050565b7f4552433732313a207472616e7366657220746f206e6f6e20455243373231526560008201527f63656976657220696d706c656d656e7465720000000000000000000000000000602082015250565b6000614416603283612f2c565b9150614421826143ba565b604082019050919050565b6000602082019050818103600083015261444581614409565b9050919050565b7f4e487b7100000000000000000000000000000000000000000000000000000000600052601260045260246000fd5b600061448682612fdc565b915061449183612fdc565b9250826144a1576144a061444c565b5b828204905092915050565b60006144b782612fdc565b91506144c283612fdc565b9250826144d2576144d161444c565b5b828206905092915050565b600081519050919050565b600082825260208201905092915050565b6000614504826144dd565b61450e81856144e8565b935061451e818560208601612f3d565b61452781612f70565b840191505092915050565b60006080820190506145476000830187613071565b6145546020830186613071565b6145616040830185613107565b818103606083015261457381846144f9565b905095945050505050565b60008151905061458d81612e92565b92915050565b6000602082840312156145a9576145a8612e5c565b5b60006145b78482850161457e565b91505092915050565b7f4e487b7100000000000000000000000000000000000000000000000000000000600052603160045260246000fd5b7f4552433732313a206d696e7420746f20746865207a65726f2061646472657373600082015250565b6000614625602083612f2c565b9150614630826145ef565b602082019050919050565b6000602082019050818103600083015261465481614618565b9050919050565b7f4552433732313a20746f6b656e20616c7265616479206d696e74656400000000600082015250565b6000614691601c83612f2c565b915061469c8261465b565b602082019050919050565b600060208201905081810360008301526146c081614684565b905091905056fea2646970667358221220b1b82ad48440fa4ccb7aed02801c1e3409ff6d92ecc71467140bf19218d3dcfc64736f6c63430008090033",
  "immutableReferences": {},
  "source": "// SPDX-License-Identifier: MIT\n\npragma solidity ^0.8.0;\n\nimport \"@openzeppelin/contracts/access/Ownable.sol\";\nimport \"@openzeppelin/contracts/token/ERC721/extensions/ERC721Enumerable.sol\";\n\ncontract kiddies is ERC721Enumerable, Ownable {\n\n  uint public constant PRICE_PER_TOKEN = 0.09 ether;\n  uint public constant MAX_SUPPLY = 10000;\n  uint public constant MAX_PUBLIC_MINT = 10;\n\n  string public provenance;\n\n  bool public isPresaleActive;\n  bool public isSaleActive;\n  \n  string private _baseURIextended;\n\n  mapping(address => uint) private _presaleList;\n\n  constructor() ERC721(\"Kiddies\", \"KIDDIES\") {\n  }\n\n  function setPresaleState(bool _isPresaleActive) external onlyOwner {\n    isPresaleActive = _isPresaleActive;\n  }\n\n  function setPresaleList(address[] calldata addresses, uint numAllowedToMint) external onlyOwner {\n    for (uint i = 0; i < addresses.length; i++) {\n        _presaleList[addresses[i]] = numAllowedToMint;\n    }\n  }\n\n  function numAvailableToMint(address addr) external view returns (uint) {\n    return _presaleList[addr];\n  }\n\n  function mintPresale(uint numberOfTokens) external payable {\n    uint totalSupply = totalSupply();\n    require(isPresaleActive, \"Presale is not active\");\n    require(numberOfTokens <= _presaleList[msg.sender], \"Exceeded number of mints allowed for presale\");\n    require(totalSupply + numberOfTokens <= MAX_SUPPLY, \"Purchase would exceed max supply\");\n    require(PRICE_PER_TOKEN * numberOfTokens <= msg.value, \"Ether value sent incorrect\");\n\n    _presaleList[msg.sender] -= numberOfTokens;\n    for (uint i = 0; i < numberOfTokens; i++) {\n        _safeMint(msg.sender, totalSupply + i);\n    }\n  }\n\n  function setBaseURI(string memory baseURI_) external onlyOwner {\n    _baseURIextended = baseURI_;\n  }\n\n  function _baseURI() internal view virtual override returns (string memory) {\n    return _baseURIextended;\n  }\n\n  function setProvenance(string memory provenance_) public onlyOwner {\n    provenance = provenance_;\n  }\n\n  function reserve(uint numberOfTokens) public onlyOwner {\n    uint totalSupply = totalSupply();\n    for (uint i = 0; i < numberOfTokens; i++) {\n        _safeMint(msg.sender, totalSupply + i);\n    }\n  }\n\n  function setSaleState(bool _isSaleActive) public onlyOwner {\n    isSaleActive = _isSaleActive;\n  }\n\n  function mint(uint numberOfTokens) public payable {\n    uint totalSupply = totalSupply();\n    require(isSaleActive, \"Sale must be active in order to mint\");\n    require(numberOfTokens <= MAX_PUBLIC_MINT, \"Exceeded number of mints allowed\");\n    require(totalSupply + numberOfTokens <= MAX_SUPPLY, \"Purchase would exceed max supply\");\n    require(PRICE_PER_TOKEN * numberOfTokens <= msg.value, \"Ether value sent is incorrect\");\n\n    for (uint i = 0; i < numberOfTokens; i++) {\n        _safeMint(msg.sender, totalSupply + i);\n    }\n  }\n\n  function withdraw() public onlyOwner {\n    uint balance = address(this).balance;\n    payable(msg.sender).transfer(balance);\n  }\n}",
  "sourcePath": "/Users/ben/nft/kiddiesnft/src/contracts/Kiddies.sol",
  "compiler": {
    "name": "solc",
    "version": "0.8.9+commit.e5eed63a.Emscripten.clang"
  },
  "schemaVersion": "3.4.3",
  "updatedAt": "2021-11-27T04:17:59.708Z",
  "networkType": "ethereum",
  "devdoc": {
    "kind": "dev",
    "methods": {
      "approve(address,uint256)": {
        "details": "See {IERC721-approve}."
      },
      "balanceOf(address)": {
        "details": "See {IERC721-balanceOf}."
      },
      "getApproved(uint256)": {
        "details": "See {IERC721-getApproved}."
      },
      "isApprovedForAll(address,address)": {
        "details": "See {IERC721-isApprovedForAll}."
      },
      "name()": {
        "details": "See {IERC721Metadata-name}."
      },
      "owner()": {
        "details": "Returns the address of the current owner."
      },
      "ownerOf(uint256)": {
        "details": "See {IERC721-ownerOf}."
      },
      "renounceOwnership()": {
        "details": "Leaves the contract without owner. It will not be possible to call `onlyOwner` functions anymore. Can only be called by the current owner. NOTE: Renouncing ownership will leave the contract without an owner, thereby removing any functionality that is only available to the owner."
      },
      "safeTransferFrom(address,address,uint256)": {
        "details": "See {IERC721-safeTransferFrom}."
      },
      "safeTransferFrom(address,address,uint256,bytes)": {
        "details": "See {IERC721-safeTransferFrom}."
      },
      "setApprovalForAll(address,bool)": {
        "details": "See {IERC721-setApprovalForAll}."
      },
      "supportsInterface(bytes4)": {
        "details": "See {IERC165-supportsInterface}."
      },
      "symbol()": {
        "details": "See {IERC721Metadata-symbol}."
      },
      "tokenByIndex(uint256)": {
        "details": "See {IERC721Enumerable-tokenByIndex}."
      },
      "tokenOfOwnerByIndex(address,uint256)": {
        "details": "See {IERC721Enumerable-tokenOfOwnerByIndex}."
      },
      "tokenURI(uint256)": {
        "details": "See {IERC721Metadata-tokenURI}."
      },
      "totalSupply()": {
        "details": "See {IERC721Enumerable-totalSupply}."
      },
      "transferFrom(address,address,uint256)": {
        "details": "See {IERC721-transferFrom}."
      },
      "transferOwnership(address)": {
        "details": "Transfers ownership of the contract to a new account (`newOwner`). Can only be called by the current owner."
      }
    },
    "version": 1
  },
  "userdoc": {
    "kind": "user",
    "methods": {},
    "version": 1
  }
}