{
  "contractName": "Kiddies",
  "abi": [
    {
      "inputs": [],
      "stateMutability": "nonpayable",
      "type": "constructor"
    },
    {
      "anonymous": false,
      "inputs": [
        {
          "indexed": true,
          "internalType": "address",
          "name": "owner",
          "type": "address"
        },
        {
          "indexed": true,
          "internalType": "address",
          "name": "approved",
          "type": "address"
        },
        {
          "indexed": true,
          "internalType": "uint256",
          "name": "tokenId",
          "type": "uint256"
        }
      ],
      "name": "Approval",
      "type": "event"
    },
    {
      "anonymous": false,
      "inputs": [
        {
          "indexed": true,
          "internalType": "address",
          "name": "owner",
          "type": "address"
        },
        {
          "indexed": true,
          "internalType": "address",
          "name": "operator",
          "type": "address"
        },
        {
          "indexed": false,
          "internalType": "bool",
          "name": "approved",
          "type": "bool"
        }
      ],
      "name": "ApprovalForAll",
      "type": "event"
    },
    {
      "anonymous": false,
      "inputs": [
        {
          "indexed": true,
          "internalType": "address",
          "name": "previousOwner",
          "type": "address"
        },
        {
          "indexed": true,
          "internalType": "address",
          "name": "newOwner",
          "type": "address"
        }
      ],
      "name": "OwnershipTransferred",
      "type": "event"
    },
    {
      "anonymous": false,
      "inputs": [
        {
          "indexed": true,
          "internalType": "address",
          "name": "from",
          "type": "address"
        },
        {
          "indexed": true,
          "internalType": "address",
          "name": "to",
          "type": "address"
        },
        {
          "indexed": true,
          "internalType": "uint256",
          "name": "tokenId",
          "type": "uint256"
        }
      ],
      "name": "Transfer",
      "type": "event"
    },
    {
      "inputs": [],
      "name": "MAX_PUBLIC_MINT",
      "outputs": [
        {
          "internalType": "uint256",
          "name": "",
          "type": "uint256"
        }
      ],
      "stateMutability": "view",
      "type": "function",
      "constant": true
    },
    {
      "inputs": [],
      "name": "MAX_SUPPLY",
      "outputs": [
        {
          "internalType": "uint256",
          "name": "",
          "type": "uint256"
        }
      ],
      "stateMutability": "view",
      "type": "function",
      "constant": true
    },
    {
      "inputs": [],
      "name": "PRICE_PER_TOKEN",
      "outputs": [
        {
          "internalType": "uint256",
          "name": "",
          "type": "uint256"
        }
      ],
      "stateMutability": "view",
      "type": "function",
      "constant": true
    },
    {
      "inputs": [
        {
          "internalType": "address",
          "name": "to",
          "type": "address"
        },
        {
          "internalType": "uint256",
          "name": "tokenId",
          "type": "uint256"
        }
      ],
      "name": "approve",
      "outputs": [],
      "stateMutability": "nonpayable",
      "type": "function"
    },
    {
      "inputs": [
        {
          "internalType": "address",
          "name": "owner",
          "type": "address"
        }
      ],
      "name": "balanceOf",
      "outputs": [
        {
          "internalType": "uint256",
          "name": "",
          "type": "uint256"
        }
      ],
      "stateMutability": "view",
      "type": "function",
      "constant": true
    },
    {
      "inputs": [
        {
          "internalType": "uint256",
          "name": "tokenId",
          "type": "uint256"
        }
      ],
      "name": "getApproved",
      "outputs": [
        {
          "internalType": "address",
          "name": "",
          "type": "address"
        }
      ],
      "stateMutability": "view",
      "type": "function",
      "constant": true
    },
    {
      "inputs": [
        {
          "internalType": "address",
          "name": "owner",
          "type": "address"
        },
        {
          "internalType": "address",
          "name": "operator",
          "type": "address"
        }
      ],
      "name": "isApprovedForAll",
      "outputs": [
        {
          "internalType": "bool",
          "name": "",
          "type": "bool"
        }
      ],
      "stateMutability": "view",
      "type": "function",
      "constant": true
    },
    {
      "inputs": [],
      "name": "isPresaleActive",
      "outputs": [
        {
          "internalType": "bool",
          "name": "",
          "type": "bool"
        }
      ],
      "stateMutability": "view",
      "type": "function",
      "constant": true
    },
    {
      "inputs": [],
      "name": "isSaleActive",
      "outputs": [
        {
          "internalType": "bool",
          "name": "",
          "type": "bool"
        }
      ],
      "stateMutability": "view",
      "type": "function",
      "constant": true
    },
    {
      "inputs": [],
      "name": "kiddieStartIndex",
      "outputs": [
        {
          "internalType": "uint256",
          "name": "",
          "type": "uint256"
        }
      ],
      "stateMutability": "view",
      "type": "function",
      "constant": true
    },
    {
      "inputs": [],
      "name": "name",
      "outputs": [
        {
          "internalType": "string",
          "name": "",
          "type": "string"
        }
      ],
      "stateMutability": "view",
      "type": "function",
      "constant": true
    },
    {
      "inputs": [],
      "name": "owner",
      "outputs": [
        {
          "internalType": "address",
          "name": "",
          "type": "address"
        }
      ],
      "stateMutability": "view",
      "type": "function",
      "constant": true
    },
    {
      "inputs": [
        {
          "internalType": "uint256",
          "name": "tokenId",
          "type": "uint256"
        }
      ],
      "name": "ownerOf",
      "outputs": [
        {
          "internalType": "address",
          "name": "",
          "type": "address"
        }
      ],
      "stateMutability": "view",
      "type": "function",
      "constant": true
    },
    {
      "inputs": [],
      "name": "provenance",
      "outputs": [
        {
          "internalType": "string",
          "name": "",
          "type": "string"
        }
      ],
      "stateMutability": "view",
      "type": "function",
      "constant": true
    },
    {
      "inputs": [],
      "name": "renounceOwnership",
      "outputs": [],
      "stateMutability": "nonpayable",
      "type": "function"
    },
    {
      "inputs": [
        {
          "internalType": "address",
          "name": "from",
          "type": "address"
        },
        {
          "internalType": "address",
          "name": "to",
          "type": "address"
        },
        {
          "internalType": "uint256",
          "name": "tokenId",
          "type": "uint256"
        }
      ],
      "name": "safeTransferFrom",
      "outputs": [],
      "stateMutability": "nonpayable",
      "type": "function"
    },
    {
      "inputs": [
        {
          "internalType": "address",
          "name": "from",
          "type": "address"
        },
        {
          "internalType": "address",
          "name": "to",
          "type": "address"
        },
        {
          "internalType": "uint256",
          "name": "tokenId",
          "type": "uint256"
        },
        {
          "internalType": "bytes",
          "name": "_data",
          "type": "bytes"
        }
      ],
      "name": "safeTransferFrom",
      "outputs": [],
      "stateMutability": "nonpayable",
      "type": "function"
    },
    {
      "inputs": [
        {
          "internalType": "address",
          "name": "operator",
          "type": "address"
        },
        {
          "internalType": "bool",
          "name": "approved",
          "type": "bool"
        }
      ],
      "name": "setApprovalForAll",
      "outputs": [],
      "stateMutability": "nonpayable",
      "type": "function"
    },
    {
      "inputs": [
        {
          "internalType": "bytes4",
          "name": "interfaceId",
          "type": "bytes4"
        }
      ],
      "name": "supportsInterface",
      "outputs": [
        {
          "internalType": "bool",
          "name": "",
          "type": "bool"
        }
      ],
      "stateMutability": "view",
      "type": "function",
      "constant": true
    },
    {
      "inputs": [],
      "name": "symbol",
      "outputs": [
        {
          "internalType": "string",
          "name": "",
          "type": "string"
        }
      ],
      "stateMutability": "view",
      "type": "function",
      "constant": true
    },
    {
      "inputs": [
        {
          "internalType": "uint256",
          "name": "index",
          "type": "uint256"
        }
      ],
      "name": "tokenByIndex",
      "outputs": [
        {
          "internalType": "uint256",
          "name": "",
          "type": "uint256"
        }
      ],
      "stateMutability": "view",
      "type": "function",
      "constant": true
    },
    {
      "inputs": [
        {
          "internalType": "address",
          "name": "owner",
          "type": "address"
        },
        {
          "internalType": "uint256",
          "name": "index",
          "type": "uint256"
        }
      ],
      "name": "tokenOfOwnerByIndex",
      "outputs": [
        {
          "internalType": "uint256",
          "name": "",
          "type": "uint256"
        }
      ],
      "stateMutability": "view",
      "type": "function",
      "constant": true
    },
    {
      "inputs": [
        {
          "internalType": "uint256",
          "name": "tokenId",
          "type": "uint256"
        }
      ],
      "name": "tokenURI",
      "outputs": [
        {
          "internalType": "string",
          "name": "",
          "type": "string"
        }
      ],
      "stateMutability": "view",
      "type": "function",
      "constant": true
    },
    {
      "inputs": [],
      "name": "totalSupply",
      "outputs": [
        {
          "internalType": "uint256",
          "name": "",
          "type": "uint256"
        }
      ],
      "stateMutability": "view",
      "type": "function",
      "constant": true
    },
    {
      "inputs": [
        {
          "internalType": "address",
          "name": "from",
          "type": "address"
        },
        {
          "internalType": "address",
          "name": "to",
          "type": "address"
        },
        {
          "internalType": "uint256",
          "name": "tokenId",
          "type": "uint256"
        }
      ],
      "name": "transferFrom",
      "outputs": [],
      "stateMutability": "nonpayable",
      "type": "function"
    },
    {
      "inputs": [
        {
          "internalType": "address",
          "name": "newOwner",
          "type": "address"
        }
      ],
      "name": "transferOwnership",
      "outputs": [],
      "stateMutability": "nonpayable",
      "type": "function"
    },
    {
      "inputs": [
        {
          "internalType": "bool",
          "name": "_isPresaleActive",
          "type": "bool"
        }
      ],
      "name": "setPresaleState",
      "outputs": [],
      "stateMutability": "nonpayable",
      "type": "function"
    },
    {
      "inputs": [
        {
          "internalType": "address[]",
          "name": "addresses",
          "type": "address[]"
        },
        {
          "internalType": "uint256",
          "name": "numAllowedToMint",
          "type": "uint256"
        }
      ],
      "name": "setPresaleList",
      "outputs": [],
      "stateMutability": "nonpayable",
      "type": "function"
    },
    {
      "inputs": [
        {
          "internalType": "address",
          "name": "addr",
          "type": "address"
        }
      ],
      "name": "numAvailableToMint",
      "outputs": [
        {
          "internalType": "uint256",
          "name": "",
          "type": "uint256"
        }
      ],
      "stateMutability": "view",
      "type": "function",
      "constant": true
    },
    {
      "inputs": [
        {
          "internalType": "uint256",
          "name": "numberOfTokens",
          "type": "uint256"
        }
      ],
      "name": "mintPresale",
      "outputs": [],
      "stateMutability": "payable",
      "type": "function",
      "payable": true
    },
    {
      "inputs": [
        {
          "internalType": "string",
          "name": "baseURI_",
          "type": "string"
        }
      ],
      "name": "setBaseURI",
      "outputs": [],
      "stateMutability": "nonpayable",
      "type": "function"
    },
    {
      "inputs": [
        {
          "internalType": "string",
          "name": "provenance_",
          "type": "string"
        }
      ],
      "name": "setProvenance",
      "outputs": [],
      "stateMutability": "nonpayable",
      "type": "function"
    },
    {
      "inputs": [
        {
          "internalType": "uint256",
          "name": "numberOfTokens",
          "type": "uint256"
        }
      ],
      "name": "reserve",
      "outputs": [],
      "stateMutability": "nonpayable",
      "type": "function"
    },
    {
      "inputs": [
        {
          "internalType": "bool",
          "name": "_isSaleActive",
          "type": "bool"
        }
      ],
      "name": "setSaleState",
      "outputs": [],
      "stateMutability": "nonpayable",
      "type": "function"
    },
    {
      "inputs": [
        {
          "internalType": "uint256",
          "name": "numberOfTokens",
          "type": "uint256"
        }
      ],
      "name": "mint",
      "outputs": [],
      "stateMutability": "payable",
      "type": "function",
      "payable": true
    },
    {
      "inputs": [],
      "name": "withdraw",
      "outputs": [],
      "stateMutability": "nonpayable",
      "type": "function"
    }
  ],
  "bytecode": "0x60806040523480156200001157600080fd5b506040518060400160405280600781526020017f4b696464696573000000000000000000000000000000000000000000000000008152506040518060400160405280600781526020017f4b49444449455300000000000000000000000000000000000000000000000000815250816000908051906020019062000096929190620001bc565b508060019080519060200190620000af929190620001bc565b505050620000d2620000c6620000ee60201b60201c565b620000f660201b60201c565b61271043620000e29190620002a5565b600c8190555062000342565b600033905090565b6000600a60009054906101000a900473ffffffffffffffffffffffffffffffffffffffff16905081600a60006101000a81548173ffffffffffffffffffffffffffffffffffffffff021916908373ffffffffffffffffffffffffffffffffffffffff1602179055508173ffffffffffffffffffffffffffffffffffffffff168173ffffffffffffffffffffffffffffffffffffffff167f8be0079c531659141344cd1fd0a4f28419497f9722a3daafe3b4186f6b6457e060405160405180910390a35050565b828054620001ca906200030c565b90600052602060002090601f016020900481019282620001ee57600085556200023a565b82601f106200020957805160ff19168380011785556200023a565b828001600101855582156200023a579182015b82811115620002395782518255916020019190600101906200021c565b5b5090506200024991906200024d565b5090565b5b80821115620002685760008160009055506001016200024e565b5090565b6000819050919050565b7f4e487b7100000000000000000000000000000000000000000000000000000000600052601260045260246000fd5b6000620002b2826200026c565b9150620002bf836200026c565b925082620002d257620002d162000276565b5b828206905092915050565b7f4e487b7100000000000000000000000000000000000000000000000000000000600052602260045260246000fd5b600060028204905060018216806200032557607f821691505b602082108114156200033c576200033b620002dd565b5b50919050565b61473980620003526000396000f3fe60806040526004361061020f5760003560e01c806365f1309711610118578063b88d4fde116100a0578063c87b56dd1161006f578063c87b56dd1461077c578063e985e9c5146107b9578063f2fde38b146107f6578063f759867a1461081f578063ffe630b51461083b5761020f565b8063b88d4fde146106c4578063bce4d6ae146106ed578063c04a283614610716578063c4e37095146107535761020f565b8063833b9499116100e7578063833b9499146105fe5780638da5cb5b1461062957806395d89b4114610654578063a0712d681461067f578063a22cb4651461069b5761020f565b806365f130971461055657806370a0823114610581578063715018a6146105be578063819b25ba146105d55761020f565b80633ccfd60b1161019b57806352c54ae11161016a57806352c54ae11461047157806355f804b31461049a578063564566a8146104c357806360d938dc146104ee5780636352211e146105195761020f565b80633ccfd60b146103c957806342842e0e146103e05780634a53e122146104095780634f6ccce7146104345761020f565b80630f7309e8116101e25780630f7309e8146102e257806318160ddd1461030d57806323b872dd146103385780632f745c591461036157806332cb6b0c1461039e5761020f565b806301ffc9a71461021457806306fdde0314610251578063081812fc1461027c578063095ea7b3146102b9575b600080fd5b34801561022057600080fd5b5061023b60048036038101906102369190612efa565b610864565b6040516102489190612f42565b60405180910390f35b34801561025d57600080fd5b506102666108de565b6040516102739190612ff6565b60405180910390f35b34801561028857600080fd5b506102a3600480360381019061029e919061304e565b610970565b6040516102b091906130bc565b60405180910390f35b3480156102c557600080fd5b506102e060048036038101906102db9190613103565b6109f5565b005b3480156102ee57600080fd5b506102f7610b0d565b6040516103049190612ff6565b60405180910390f35b34801561031957600080fd5b50610322610b9b565b60405161032f9190613152565b60405180910390f35b34801561034457600080fd5b5061035f600480360381019061035a919061316d565b610ba8565b005b34801561036d57600080fd5b5061038860048036038101906103839190613103565b610c08565b6040516103959190613152565b60405180910390f35b3480156103aa57600080fd5b506103b3610cad565b6040516103c09190613152565b60405180910390f35b3480156103d557600080fd5b506103de610cb3565b005b3480156103ec57600080fd5b506104076004803603810190610402919061316d565b610d7e565b005b34801561041557600080fd5b5061041e610d9e565b60405161042b9190613152565b60405180910390f35b34801561044057600080fd5b5061045b6004803603810190610456919061304e565b610da4565b6040516104689190613152565b60405180910390f35b34801561047d57600080fd5b5061049860048036038101906104939190613225565b610e15565b005b3480156104a657600080fd5b506104c160048036038101906104bc91906133b5565b610f23565b005b3480156104cf57600080fd5b506104d8610fb9565b6040516104e59190612f42565b60405180910390f35b3480156104fa57600080fd5b50610503610fcc565b6040516105109190612f42565b60405180910390f35b34801561052557600080fd5b50610540600480360381019061053b919061304e565b610fdf565b60405161054d91906130bc565b60405180910390f35b34801561056257600080fd5b5061056b611091565b6040516105789190613152565b60405180910390f35b34801561058d57600080fd5b506105a860048036038101906105a391906133fe565b611096565b6040516105b59190613152565b60405180910390f35b3480156105ca57600080fd5b506105d361114e565b005b3480156105e157600080fd5b506105fc60048036038101906105f7919061304e565b6111d6565b005b34801561060a57600080fd5b50610613611296565b6040516106209190613152565b60405180910390f35b34801561063557600080fd5b5061063e6112a2565b60405161064b91906130bc565b60405180910390f35b34801561066057600080fd5b506106696112cc565b6040516106769190612ff6565b60405180910390f35b6106996004803603810190610694919061304e565b61135e565b005b3480156106a757600080fd5b506106c260048036038101906106bd9190613457565b6114db565b005b3480156106d057600080fd5b506106eb60048036038101906106e69190613538565b61165c565b005b3480156106f957600080fd5b50610714600480360381019061070f91906135bb565b6116be565b005b34801561072257600080fd5b5061073d600480360381019061073891906133fe565b611757565b60405161074a9190613152565b60405180910390f35b34801561075f57600080fd5b5061077a600480360381019061077591906135bb565b6117a0565b005b34801561078857600080fd5b506107a3600480360381019061079e919061304e565b611839565b6040516107b09190612ff6565b60405180910390f35b3480156107c557600080fd5b506107e060048036038101906107db91906135e8565b6118e0565b6040516107ed9190612f42565b60405180910390f35b34801561080257600080fd5b5061081d600480360381019061081891906133fe565b611974565b005b6108396004803603810190610834919061304e565b611a6c565b005b34801561084757600080fd5b50610862600480360381019061085d91906133b5565b611c7d565b005b60007f780e9d63000000000000000000000000000000000000000000000000000000007bffffffffffffffffffffffffffffffffffffffffffffffffffffffff1916827bffffffffffffffffffffffffffffffffffffffffffffffffffffffff191614806108d757506108d682611d13565b5b9050919050565b6060600080546108ed90613657565b80601f016020809104026020016040519081016040528092919081815260200182805461091990613657565b80156109665780601f1061093b57610100808354040283529160200191610966565b820191906000526020600020905b81548152906001019060200180831161094957829003601f168201915b5050505050905090565b600061097b82611df5565b6109ba576040517f08c379a00000000000000000000000000000000000000000000000000000000081526004016109b1906136fb565b60405180910390fd5b6004600083815260200190815260200160002060009054906101000a900473ffffffffffffffffffffffffffffffffffffffff169050919050565b6000610a0082610fdf565b90508073ffffffffffffffffffffffffffffffffffffffff168373ffffffffffffffffffffffffffffffffffffffff161415610a71576040517f08c379a0000000000000000000000000000000000000000000000000000000008152600401610a689061378d565b60405180910390fd5b8073ffffffffffffffffffffffffffffffffffffffff16610a90611e61565b73ffffffffffffffffffffffffffffffffffffffff161480610abf5750610abe81610ab9611e61565b6118e0565b5b610afe576040517f08c379a0000000000000000000000000000000000000000000000000000000008152600401610af59061381f565b60405180910390fd5b610b088383611e69565b505050565b600b8054610b1a90613657565b80601f0160208091040260200160405190810160405280929190818152602001828054610b4690613657565b8015610b935780601f10610b6857610100808354040283529160200191610b93565b820191906000526020600020905b815481529060010190602001808311610b7657829003601f168201915b505050505081565b6000600880549050905090565b610bb9610bb3611e61565b82611f22565b610bf8576040517f08c379a0000000000000000000000000000000000000000000000000000000008152600401610bef906138b1565b60405180910390fd5b610c03838383612000565b505050565b6000610c1383611096565b8210610c54576040517f08c379a0000000000000000000000000000000000000000000000000000000008152600401610c4b90613943565b60405180910390fd5b600660008473ffffffffffffffffffffffffffffffffffffffff1673ffffffffffffffffffffffffffffffffffffffff168152602001908152602001600020600083815260200190815260200160002054905092915050565b61271081565b610cbb611e61565b73ffffffffffffffffffffffffffffffffffffffff16610cd96112a2565b73ffffffffffffffffffffffffffffffffffffffff1614610d2f576040517f08c379a0000000000000000000000000000000000000000000000000000000008152600401610d26906139af565b60405180910390fd5b60004790503373ffffffffffffffffffffffffffffffffffffffff166108fc829081150290604051600060405180830381858888f19350505050158015610d7a573d6000803e3d6000fd5b5050565b610d998383836040518060200160405280600081525061165c565b505050565b600c5481565b6000610dae610b9b565b8210610def576040517f08c379a0000000000000000000000000000000000000000000000000000000008152600401610de690613a41565b60405180910390fd5b60088281548110610e0357610e02613a61565b5b90600052602060002001549050919050565b610e1d611e61565b73ffffffffffffffffffffffffffffffffffffffff16610e3b6112a2565b73ffffffffffffffffffffffffffffffffffffffff1614610e91576040517f08c379a0000000000000000000000000000000000000000000000000000000008152600401610e88906139af565b60405180910390fd5b60005b83839050811015610f1d5781600f6000868685818110610eb757610eb6613a61565b5b9050602002016020810190610ecc91906133fe565b73ffffffffffffffffffffffffffffffffffffffff1673ffffffffffffffffffffffffffffffffffffffff168152602001908152602001600020819055508080610f1590613abf565b915050610e94565b50505050565b610f2b611e61565b73ffffffffffffffffffffffffffffffffffffffff16610f496112a2565b73ffffffffffffffffffffffffffffffffffffffff1614610f9f576040517f08c379a0000000000000000000000000000000000000000000000000000000008152600401610f96906139af565b60405180910390fd5b80600e9080519060200190610fb5929190612deb565b5050565b600d60019054906101000a900460ff1681565b600d60009054906101000a900460ff1681565b6000806002600084815260200190815260200160002060009054906101000a900473ffffffffffffffffffffffffffffffffffffffff169050600073ffffffffffffffffffffffffffffffffffffffff168173ffffffffffffffffffffffffffffffffffffffff161415611088576040517f08c379a000000000000000000000000000000000000000000000000000000000815260040161107f90613b7a565b60405180910390fd5b80915050919050565b600a81565b60008073ffffffffffffffffffffffffffffffffffffffff168273ffffffffffffffffffffffffffffffffffffffff161415611107576040517f08c379a00000000000000000000000000000000000000000000000000000000081526004016110fe90613c0c565b60405180910390fd5b600360008373ffffffffffffffffffffffffffffffffffffffff1673ffffffffffffffffffffffffffffffffffffffff168152602001908152602001600020549050919050565b611156611e61565b73ffffffffffffffffffffffffffffffffffffffff166111746112a2565b73ffffffffffffffffffffffffffffffffffffffff16146111ca576040517f08c379a00000000000000000000000000000000000000000000000000000000081526004016111c1906139af565b60405180910390fd5b6111d4600061225c565b565b6111de611e61565b73ffffffffffffffffffffffffffffffffffffffff166111fc6112a2565b73ffffffffffffffffffffffffffffffffffffffff1614611252576040517f08c379a0000000000000000000000000000000000000000000000000000000008152600401611249906139af565b60405180910390fd5b600061125c610b9b565b905060005b828110156112915761127e3382846112799190613c2c565b612322565b808061128990613abf565b915050611261565b505050565b67013fbe85edc9000081565b6000600a60009054906101000a900473ffffffffffffffffffffffffffffffffffffffff16905090565b6060600180546112db90613657565b80601f016020809104026020016040519081016040528092919081815260200182805461130790613657565b80156113545780601f1061132957610100808354040283529160200191611354565b820191906000526020600020905b81548152906001019060200180831161133757829003601f168201915b5050505050905090565b6000611368610b9b565b9050600d60019054906101000a900460ff166113b9576040517f08c379a00000000000000000000000000000000000000000000000000000000081526004016113b090613cf4565b60405180910390fd5b600a8211156113fd576040517f08c379a00000000000000000000000000000000000000000000000000000000081526004016113f490613d60565b60405180910390fd5b612710828261140c9190613c2c565b111561144d576040517f08c379a000000000000000000000000000000000000000000000000000000000815260040161144490613dcc565b60405180910390fd5b348267013fbe85edc900006114629190613dec565b11156114a3576040517f08c379a000000000000000000000000000000000000000000000000000000000815260040161149a90613e92565b60405180910390fd5b60005b828110156114d6576114c33382846114be9190613c2c565b612322565b80806114ce90613abf565b9150506114a6565b505050565b6114e3611e61565b73ffffffffffffffffffffffffffffffffffffffff168273ffffffffffffffffffffffffffffffffffffffff161415611551576040517f08c379a000000000000000000000000000000000000000000000000000000000815260040161154890613efe565b60405180910390fd5b806005600061155e611e61565b73ffffffffffffffffffffffffffffffffffffffff1673ffffffffffffffffffffffffffffffffffffffff16815260200190815260200160002060008473ffffffffffffffffffffffffffffffffffffffff1673ffffffffffffffffffffffffffffffffffffffff16815260200190815260200160002060006101000a81548160ff0219169083151502179055508173ffffffffffffffffffffffffffffffffffffffff1661160b611e61565b73ffffffffffffffffffffffffffffffffffffffff167f17307eab39ab6107e8899845ad3d59bd9653f200f220920489ca2b5937696c31836040516116509190612f42565b60405180910390a35050565b61166d611667611e61565b83611f22565b6116ac576040517f08c379a00000000000000000000000000000000000000000000000000000000081526004016116a3906138b1565b60405180910390fd5b6116b884848484612340565b50505050565b6116c6611e61565b73ffffffffffffffffffffffffffffffffffffffff166116e46112a2565b73ffffffffffffffffffffffffffffffffffffffff161461173a576040517f08c379a0000000000000000000000000000000000000000000000000000000008152600401611731906139af565b60405180910390fd5b80600d60006101000a81548160ff02191690831515021790555050565b6000600f60008373ffffffffffffffffffffffffffffffffffffffff1673ffffffffffffffffffffffffffffffffffffffff168152602001908152602001600020549050919050565b6117a8611e61565b73ffffffffffffffffffffffffffffffffffffffff166117c66112a2565b73ffffffffffffffffffffffffffffffffffffffff161461181c576040517f08c379a0000000000000000000000000000000000000000000000000000000008152600401611813906139af565b60405180910390fd5b80600d60016101000a81548160ff02191690831515021790555050565b606061184482611df5565b611883576040517f08c379a000000000000000000000000000000000000000000000000000000000815260040161187a90613f90565b60405180910390fd5b600061188d61239c565b905060008151116118ad57604051806020016040528060008152506118d8565b806118b78461242e565b6040516020016118c8929190613fec565b6040516020818303038152906040525b915050919050565b6000600560008473ffffffffffffffffffffffffffffffffffffffff1673ffffffffffffffffffffffffffffffffffffffff16815260200190815260200160002060008373ffffffffffffffffffffffffffffffffffffffff1673ffffffffffffffffffffffffffffffffffffffff16815260200190815260200160002060009054906101000a900460ff16905092915050565b61197c611e61565b73ffffffffffffffffffffffffffffffffffffffff1661199a6112a2565b73ffffffffffffffffffffffffffffffffffffffff16146119f0576040517f08c379a00000000000000000000000000000000000000000000000000000000081526004016119e7906139af565b60405180910390fd5b600073ffffffffffffffffffffffffffffffffffffffff168173ffffffffffffffffffffffffffffffffffffffff161415611a60576040517f08c379a0000000000000000000000000000000000000000000000000000000008152600401611a5790614082565b60405180910390fd5b611a698161225c565b50565b6000611a76610b9b565b9050600d60009054906101000a900460ff16611ac7576040517f08c379a0000000000000000000000000000000000000000000000000000000008152600401611abe906140ee565b60405180910390fd5b600f60003373ffffffffffffffffffffffffffffffffffffffff1673ffffffffffffffffffffffffffffffffffffffff16815260200190815260200160002054821115611b49576040517f08c379a0000000000000000000000000000000000000000000000000000000008152600401611b4090614180565b60405180910390fd5b6127108282611b589190613c2c565b1115611b99576040517f08c379a0000000000000000000000000000000000000000000000000000000008152600401611b9090613dcc565b60405180910390fd5b348267013fbe85edc90000611bae9190613dec565b1115611bef576040517f08c379a0000000000000000000000000000000000000000000000000000000008152600401611be6906141ec565b60405180910390fd5b81600f60003373ffffffffffffffffffffffffffffffffffffffff1673ffffffffffffffffffffffffffffffffffffffff1681526020019081526020016000206000828254611c3e919061420c565b9250508190555060005b82811015611c7857611c65338284611c609190613c2c565b612322565b8080611c7090613abf565b915050611c48565b505050565b611c85611e61565b73ffffffffffffffffffffffffffffffffffffffff16611ca36112a2565b73ffffffffffffffffffffffffffffffffffffffff1614611cf9576040517f08c379a0000000000000000000000000000000000000000000000000000000008152600401611cf0906139af565b60405180910390fd5b80600b9080519060200190611d0f929190612deb565b5050565b60007f80ac58cd000000000000000000000000000000000000000000000000000000007bffffffffffffffffffffffffffffffffffffffffffffffffffffffff1916827bffffffffffffffffffffffffffffffffffffffffffffffffffffffff19161480611dde57507f5b5e139f000000000000000000000000000000000000000000000000000000007bffffffffffffffffffffffffffffffffffffffffffffffffffffffff1916827bffffffffffffffffffffffffffffffffffffffffffffffffffffffff1916145b80611dee5750611ded8261258f565b5b9050919050565b60008073ffffffffffffffffffffffffffffffffffffffff166002600084815260200190815260200160002060009054906101000a900473ffffffffffffffffffffffffffffffffffffffff1673ffffffffffffffffffffffffffffffffffffffff1614159050919050565b600033905090565b816004600083815260200190815260200160002060006101000a81548173ffffffffffffffffffffffffffffffffffffffff021916908373ffffffffffffffffffffffffffffffffffffffff160217905550808273ffffffffffffffffffffffffffffffffffffffff16611edc83610fdf565b73ffffffffffffffffffffffffffffffffffffffff167f8c5be1e5ebec7d5bd14f71427d1e84f3dd0314c0f7b2291e5b200ac8c7c3b92560405160405180910390a45050565b6000611f2d82611df5565b611f6c576040517f08c379a0000000000000000000000000000000000000000000000000000000008152600401611f63906142b2565b60405180910390fd5b6000611f7783610fdf565b90508073ffffffffffffffffffffffffffffffffffffffff168473ffffffffffffffffffffffffffffffffffffffff161480611fe657508373ffffffffffffffffffffffffffffffffffffffff16611fce84610970565b73ffffffffffffffffffffffffffffffffffffffff16145b80611ff75750611ff681856118e0565b5b91505092915050565b8273ffffffffffffffffffffffffffffffffffffffff1661202082610fdf565b73ffffffffffffffffffffffffffffffffffffffff1614612076576040517f08c379a000000000000000000000000000000000000000000000000000000000815260040161206d90614344565b60405180910390fd5b600073ffffffffffffffffffffffffffffffffffffffff168273ffffffffffffffffffffffffffffffffffffffff1614156120e6576040517f08c379a00000000000000000000000000000000000000000000000000000000081526004016120dd906143d6565b60405180910390fd5b6120f18383836125f9565b6120fc600082611e69565b6001600360008573ffffffffffffffffffffffffffffffffffffffff1673ffffffffffffffffffffffffffffffffffffffff168152602001908152602001600020600082825461214c919061420c565b925050819055506001600360008473ffffffffffffffffffffffffffffffffffffffff1673ffffffffffffffffffffffffffffffffffffffff16815260200190815260200160002060008282546121a39190613c2c565b92505081905550816002600083815260200190815260200160002060006101000a81548173ffffffffffffffffffffffffffffffffffffffff021916908373ffffffffffffffffffffffffffffffffffffffff160217905550808273ffffffffffffffffffffffffffffffffffffffff168473ffffffffffffffffffffffffffffffffffffffff167fddf252ad1be2c89b69c2b068fc378daa952ba7f163c4a11628f55a4df523b3ef60405160405180910390a4505050565b6000600a60009054906101000a900473ffffffffffffffffffffffffffffffffffffffff16905081600a60006101000a81548173ffffffffffffffffffffffffffffffffffffffff021916908373ffffffffffffffffffffffffffffffffffffffff1602179055508173ffffffffffffffffffffffffffffffffffffffff168173ffffffffffffffffffffffffffffffffffffffff167f8be0079c531659141344cd1fd0a4f28419497f9722a3daafe3b4186f6b6457e060405160405180910390a35050565b61233c82826040518060200160405280600081525061270d565b5050565b61234b848484612000565b61235784848484612768565b612396576040517f08c379a000000000000000000000000000000000000000000000000000000000815260040161238d90614468565b60405180910390fd5b50505050565b6060600e80546123ab90613657565b80601f01602080910402602001604051908101604052809291908181526020018280546123d790613657565b80156124245780601f106123f957610100808354040283529160200191612424565b820191906000526020600020905b81548152906001019060200180831161240757829003601f168201915b5050505050905090565b60606000821415612476576040518060400160405280600181526020017f3000000000000000000000000000000000000000000000000000000000000000815250905061258a565b600082905060005b600082146124a857808061249190613abf565b915050600a826124a191906144b7565b915061247e565b60008167ffffffffffffffff8111156124c4576124c361328a565b5b6040519080825280601f01601f1916602001820160405280156124f65781602001600182028036833780820191505090505b5090505b600085146125835760018261250f919061420c565b9150600a8561251e91906144e8565b603061252a9190613c2c565b60f81b8183815181106125405761253f613a61565b5b60200101907effffffffffffffffffffffffffffffffffffffffffffffffffffffffffffff1916908160001a905350600a8561257c91906144b7565b94506124fa565b8093505050505b919050565b60007f01ffc9a7000000000000000000000000000000000000000000000000000000007bffffffffffffffffffffffffffffffffffffffffffffffffffffffff1916827bffffffffffffffffffffffffffffffffffffffffffffffffffffffff1916149050919050565b6126048383836128ff565b600073ffffffffffffffffffffffffffffffffffffffff168373ffffffffffffffffffffffffffffffffffffffff1614156126475761264281612904565b612686565b8173ffffffffffffffffffffffffffffffffffffffff168373ffffffffffffffffffffffffffffffffffffffff161461268557612684838261294d565b5b5b600073ffffffffffffffffffffffffffffffffffffffff168273ffffffffffffffffffffffffffffffffffffffff1614156126c9576126c481612aba565b612708565b8273ffffffffffffffffffffffffffffffffffffffff168273ffffffffffffffffffffffffffffffffffffffff1614612707576127068282612b8b565b5b5b505050565b6127178383612c0a565b6127246000848484612768565b612763576040517f08c379a000000000000000000000000000000000000000000000000000000000815260040161275a90614468565b60405180910390fd5b505050565b60006127898473ffffffffffffffffffffffffffffffffffffffff16612dd8565b156128f2578373ffffffffffffffffffffffffffffffffffffffff1663150b7a026127b2611e61565b8786866040518563ffffffff1660e01b81526004016127d4949392919061456e565b602060405180830381600087803b1580156127ee57600080fd5b505af192505050801561281f57506040513d601f19601f8201168201806040525081019061281c91906145cf565b60015b6128a2573d806000811461284f576040519150601f19603f3d011682016040523d82523d6000602084013e612854565b606091505b5060008151141561289a576040517f08c379a000000000000000000000000000000000000000000000000000000000815260040161289190614468565b60405180910390fd5b805181602001fd5b63150b7a0260e01b7bffffffffffffffffffffffffffffffffffffffffffffffffffffffff1916817bffffffffffffffffffffffffffffffffffffffffffffffffffffffff1916149150506128f7565b600190505b949350505050565b505050565b6008805490506009600083815260200190815260200160002081905550600881908060018154018082558091505060019003906000526020600020016000909190919091505550565b6000600161295a84611096565b612964919061420c565b9050600060076000848152602001908152602001600020549050818114612a49576000600660008673ffffffffffffffffffffffffffffffffffffffff1673ffffffffffffffffffffffffffffffffffffffff168152602001908152602001600020600084815260200190815260200160002054905080600660008773ffffffffffffffffffffffffffffffffffffffff1673ffffffffffffffffffffffffffffffffffffffff168152602001908152602001600020600084815260200190815260200160002081905550816007600083815260200190815260200160002081905550505b6007600084815260200190815260200160002060009055600660008573ffffffffffffffffffffffffffffffffffffffff1673ffffffffffffffffffffffffffffffffffffffff16815260200190815260200160002060008381526020019081526020016000206000905550505050565b60006001600880549050612ace919061420c565b9050600060096000848152602001908152602001600020549050600060088381548110612afe57612afd613a61565b5b906000526020600020015490508060088381548110612b2057612b1f613a61565b5b906000526020600020018190555081600960008381526020019081526020016000208190555060096000858152602001908152602001600020600090556008805480612b6f57612b6e6145fc565b5b6001900381819060005260206000200160009055905550505050565b6000612b9683611096565b905081600660008573ffffffffffffffffffffffffffffffffffffffff1673ffffffffffffffffffffffffffffffffffffffff168152602001908152602001600020600083815260200190815260200160002081905550806007600084815260200190815260200160002081905550505050565b600073ffffffffffffffffffffffffffffffffffffffff168273ffffffffffffffffffffffffffffffffffffffff161415612c7a576040517f08c379a0000000000000000000000000000000000000000000000000000000008152600401612c7190614677565b60405180910390fd5b612c8381611df5565b15612cc3576040517f08c379a0000000000000000000000000000000000000000000000000000000008152600401612cba906146e3565b60405180910390fd5b612ccf600083836125f9565b6001600360008473ffffffffffffffffffffffffffffffffffffffff1673ffffffffffffffffffffffffffffffffffffffff1681526020019081526020016000206000828254612d1f9190613c2c565b92505081905550816002600083815260200190815260200160002060006101000a81548173ffffffffffffffffffffffffffffffffffffffff021916908373ffffffffffffffffffffffffffffffffffffffff160217905550808273ffffffffffffffffffffffffffffffffffffffff16600073ffffffffffffffffffffffffffffffffffffffff167fddf252ad1be2c89b69c2b068fc378daa952ba7f163c4a11628f55a4df523b3ef60405160405180910390a45050565b600080823b905060008111915050919050565b828054612df790613657565b90600052602060002090601f016020900481019282612e195760008555612e60565b82601f10612e3257805160ff1916838001178555612e60565b82800160010185558215612e60579182015b82811115612e5f578251825591602001919060010190612e44565b5b509050612e6d9190612e71565b5090565b5b80821115612e8a576000816000905550600101612e72565b5090565b6000604051905090565b600080fd5b600080fd5b60007fffffffff0000000000000000000000000000000000000000000000000000000082169050919050565b612ed781612ea2565b8114612ee257600080fd5b50565b600081359050612ef481612ece565b92915050565b600060208284031215612f1057612f0f612e98565b5b6000612f1e84828501612ee5565b91505092915050565b60008115159050919050565b612f3c81612f27565b82525050565b6000602082019050612f576000830184612f33565b92915050565b600081519050919050565b600082825260208201905092915050565b60005b83811015612f97578082015181840152602081019050612f7c565b83811115612fa6576000848401525b50505050565b6000601f19601f8301169050919050565b6000612fc882612f5d565b612fd28185612f68565b9350612fe2818560208601612f79565b612feb81612fac565b840191505092915050565b600060208201905081810360008301526130108184612fbd565b905092915050565b6000819050919050565b61302b81613018565b811461303657600080fd5b50565b60008135905061304881613022565b92915050565b60006020828403121561306457613063612e98565b5b600061307284828501613039565b91505092915050565b600073ffffffffffffffffffffffffffffffffffffffff82169050919050565b60006130a68261307b565b9050919050565b6130b68161309b565b82525050565b60006020820190506130d160008301846130ad565b92915050565b6130e08161309b565b81146130eb57600080fd5b50565b6000813590506130fd816130d7565b92915050565b6000806040838503121561311a57613119612e98565b5b6000613128858286016130ee565b925050602061313985828601613039565b9150509250929050565b61314c81613018565b82525050565b60006020820190506131676000830184613143565b92915050565b60008060006060848603121561318657613185612e98565b5b6000613194868287016130ee565b93505060206131a5868287016130ee565b92505060406131b686828701613039565b9150509250925092565b600080fd5b600080fd5b600080fd5b60008083601f8401126131e5576131e46131c0565b5b8235905067ffffffffffffffff811115613202576132016131c5565b5b60208301915083602082028301111561321e5761321d6131ca565b5b9250929050565b60008060006040848603121561323e5761323d612e98565b5b600084013567ffffffffffffffff81111561325c5761325b612e9d565b5b613268868287016131cf565b9350935050602061327b86828701613039565b9150509250925092565b600080fd5b7f4e487b7100000000000000000000000000000000000000000000000000000000600052604160045260246000fd5b6132c282612fac565b810181811067ffffffffffffffff821117156132e1576132e061328a565b5b80604052505050565b60006132f4612e8e565b905061330082826132b9565b919050565b600067ffffffffffffffff8211156133205761331f61328a565b5b61332982612fac565b9050602081019050919050565b82818337600083830152505050565b600061335861335384613305565b6132ea565b90508281526020810184848401111561337457613373613285565b5b61337f848285613336565b509392505050565b600082601f83011261339c5761339b6131c0565b5b81356133ac848260208601613345565b91505092915050565b6000602082840312156133cb576133ca612e98565b5b600082013567ffffffffffffffff8111156133e9576133e8612e9d565b5b6133f584828501613387565b91505092915050565b60006020828403121561341457613413612e98565b5b6000613422848285016130ee565b91505092915050565b61343481612f27565b811461343f57600080fd5b50565b6000813590506134518161342b565b92915050565b6000806040838503121561346e5761346d612e98565b5b600061347c858286016130ee565b925050602061348d85828601613442565b9150509250929050565b600067ffffffffffffffff8211156134b2576134b161328a565b5b6134bb82612fac565b9050602081019050919050565b60006134db6134d684613497565b6132ea565b9050828152602081018484840111156134f7576134f6613285565b5b613502848285613336565b509392505050565b600082601f83011261351f5761351e6131c0565b5b813561352f8482602086016134c8565b91505092915050565b6000806000806080858703121561355257613551612e98565b5b6000613560878288016130ee565b9450506020613571878288016130ee565b935050604061358287828801613039565b925050606085013567ffffffffffffffff8111156135a3576135a2612e9d565b5b6135af8782880161350a565b91505092959194509250565b6000602082840312156135d1576135d0612e98565b5b60006135df84828501613442565b91505092915050565b600080604083850312156135ff576135fe612e98565b5b600061360d858286016130ee565b925050602061361e858286016130ee565b9150509250929050565b7f4e487b7100000000000000000000000000000000000000000000000000000000600052602260045260246000fd5b6000600282049050600182168061366f57607f821691505b6020821081141561368357613682613628565b5b50919050565b7f4552433732313a20617070726f76656420717565727920666f72206e6f6e657860008201527f697374656e7420746f6b656e0000000000000000000000000000000000000000602082015250565b60006136e5602c83612f68565b91506136f082613689565b604082019050919050565b60006020820190508181036000830152613714816136d8565b9050919050565b7f4552433732313a20617070726f76616c20746f2063757272656e74206f776e6560008201527f7200000000000000000000000000000000000000000000000000000000000000602082015250565b6000613777602183612f68565b91506137828261371b565b604082019050919050565b600060208201905081810360008301526137a68161376a565b9050919050565b7f4552433732313a20617070726f76652063616c6c6572206973206e6f74206f7760008201527f6e6572206e6f7220617070726f76656420666f7220616c6c0000000000000000602082015250565b6000613809603883612f68565b9150613814826137ad565b604082019050919050565b60006020820190508181036000830152613838816137fc565b9050919050565b7f4552433732313a207472616e736665722063616c6c6572206973206e6f74206f60008201527f776e6572206e6f7220617070726f766564000000000000000000000000000000602082015250565b600061389b603183612f68565b91506138a68261383f565b604082019050919050565b600060208201905081810360008301526138ca8161388e565b9050919050565b7f455243373231456e756d657261626c653a206f776e657220696e646578206f7560008201527f74206f6620626f756e6473000000000000000000000000000000000000000000602082015250565b600061392d602b83612f68565b9150613938826138d1565b604082019050919050565b6000602082019050818103600083015261395c81613920565b9050919050565b7f4f776e61626c653a2063616c6c6572206973206e6f7420746865206f776e6572600082015250565b6000613999602083612f68565b91506139a482613963565b602082019050919050565b600060208201905081810360008301526139c88161398c565b9050919050565b7f455243373231456e756d657261626c653a20676c6f62616c20696e646578206f60008201527f7574206f6620626f756e64730000000000000000000000000000000000000000602082015250565b6000613a2b602c83612f68565b9150613a36826139cf565b604082019050919050565b60006020820190508181036000830152613a5a81613a1e565b9050919050565b7f4e487b7100000000000000000000000000000000000000000000000000000000600052603260045260246000fd5b7f4e487b7100000000000000000000000000000000000000000000000000000000600052601160045260246000fd5b6000613aca82613018565b91507fffffffffffffffffffffffffffffffffffffffffffffffffffffffffffffffff821415613afd57613afc613a90565b5b600182019050919050565b7f4552433732313a206f776e657220717565727920666f72206e6f6e657869737460008201527f656e7420746f6b656e0000000000000000000000000000000000000000000000602082015250565b6000613b64602983612f68565b9150613b6f82613b08565b604082019050919050565b60006020820190508181036000830152613b9381613b57565b9050919050565b7f4552433732313a2062616c616e636520717565727920666f7220746865207a6560008201527f726f206164647265737300000000000000000000000000000000000000000000602082015250565b6000613bf6602a83612f68565b9150613c0182613b9a565b604082019050919050565b60006020820190508181036000830152613c2581613be9565b9050919050565b6000613c3782613018565b9150613c4283613018565b9250827fffffffffffffffffffffffffffffffffffffffffffffffffffffffffffffffff03821115613c7757613c76613a90565b5b828201905092915050565b7f53616c65206d7573742062652061637469766520696e206f7264657220746f2060008201527f6d696e7400000000000000000000000000000000000000000000000000000000602082015250565b6000613cde602483612f68565b9150613ce982613c82565b604082019050919050565b60006020820190508181036000830152613d0d81613cd1565b9050919050565b7f4578636565646564206e756d626572206f66206d696e747320616c6c6f776564600082015250565b6000613d4a602083612f68565b9150613d5582613d14565b602082019050919050565b60006020820190508181036000830152613d7981613d3d565b9050919050565b7f507572636861736520776f756c6420657863656564206d617820737570706c79600082015250565b6000613db6602083612f68565b9150613dc182613d80565b602082019050919050565b60006020820190508181036000830152613de581613da9565b9050919050565b6000613df782613018565b9150613e0283613018565b9250817fffffffffffffffffffffffffffffffffffffffffffffffffffffffffffffffff0483118215151615613e3b57613e3a613a90565b5b828202905092915050565b7f45746865722076616c75652073656e7420697320696e636f7272656374000000600082015250565b6000613e7c601d83612f68565b9150613e8782613e46565b602082019050919050565b60006020820190508181036000830152613eab81613e6f565b9050919050565b7f4552433732313a20617070726f766520746f2063616c6c657200000000000000600082015250565b6000613ee8601983612f68565b9150613ef382613eb2565b602082019050919050565b60006020820190508181036000830152613f1781613edb565b9050919050565b7f4552433732314d657461646174613a2055524920717565727920666f72206e6f60008201527f6e6578697374656e7420746f6b656e0000000000000000000000000000000000602082015250565b6000613f7a602f83612f68565b9150613f8582613f1e565b604082019050919050565b60006020820190508181036000830152613fa981613f6d565b9050919050565b600081905092915050565b6000613fc682612f5d565b613fd08185613fb0565b9350613fe0818560208601612f79565b80840191505092915050565b6000613ff88285613fbb565b91506140048284613fbb565b91508190509392505050565b7f4f776e61626c653a206e6577206f776e657220697320746865207a65726f206160008201527f6464726573730000000000000000000000000000000000000000000000000000602082015250565b600061406c602683612f68565b915061407782614010565b604082019050919050565b6000602082019050818103600083015261409b8161405f565b9050919050565b7f50726573616c65206973206e6f74206163746976650000000000000000000000600082015250565b60006140d8601583612f68565b91506140e3826140a2565b602082019050919050565b60006020820190508181036000830152614107816140cb565b9050919050565b7f4578636565646564206e756d626572206f66206d696e747320616c6c6f77656460008201527f20666f722070726573616c650000000000000000000000000000000000000000602082015250565b600061416a602c83612f68565b91506141758261410e565b604082019050919050565b600060208201905081810360008301526141998161415d565b9050919050565b7f45746865722076616c75652073656e7420696e636f7272656374000000000000600082015250565b60006141d6601a83612f68565b91506141e1826141a0565b602082019050919050565b60006020820190508181036000830152614205816141c9565b9050919050565b600061421782613018565b915061422283613018565b92508282101561423557614234613a90565b5b828203905092915050565b7f4552433732313a206f70657261746f7220717565727920666f72206e6f6e657860008201527f697374656e7420746f6b656e0000000000000000000000000000000000000000602082015250565b600061429c602c83612f68565b91506142a782614240565b604082019050919050565b600060208201905081810360008301526142cb8161428f565b9050919050565b7f4552433732313a207472616e73666572206f6620746f6b656e2074686174206960008201527f73206e6f74206f776e0000000000000000000000000000000000000000000000602082015250565b600061432e602983612f68565b9150614339826142d2565b604082019050919050565b6000602082019050818103600083015261435d81614321565b9050919050565b7f4552433732313a207472616e7366657220746f20746865207a65726f2061646460008201527f7265737300000000000000000000000000000000000000000000000000000000602082015250565b60006143c0602483612f68565b91506143cb82614364565b604082019050919050565b600060208201905081810360008301526143ef816143b3565b9050919050565b7f4552433732313a207472616e7366657220746f206e6f6e20455243373231526560008201527f63656976657220696d706c656d656e7465720000000000000000000000000000602082015250565b6000614452603283612f68565b915061445d826143f6565b604082019050919050565b6000602082019050818103600083015261448181614445565b9050919050565b7f4e487b7100000000000000000000000000000000000000000000000000000000600052601260045260246000fd5b60006144c282613018565b91506144cd83613018565b9250826144dd576144dc614488565b5b828204905092915050565b60006144f382613018565b91506144fe83613018565b92508261450e5761450d614488565b5b828206905092915050565b600081519050919050565b600082825260208201905092915050565b600061454082614519565b61454a8185614524565b935061455a818560208601612f79565b61456381612fac565b840191505092915050565b600060808201905061458360008301876130ad565b61459060208301866130ad565b61459d6040830185613143565b81810360608301526145af8184614535565b905095945050505050565b6000815190506145c981612ece565b92915050565b6000602082840312156145e5576145e4612e98565b5b60006145f3848285016145ba565b91505092915050565b7f4e487b7100000000000000000000000000000000000000000000000000000000600052603160045260246000fd5b7f4552433732313a206d696e7420746f20746865207a65726f2061646472657373600082015250565b6000614661602083612f68565b915061466c8261462b565b602082019050919050565b6000602082019050818103600083015261469081614654565b9050919050565b7f4552433732313a20746f6b656e20616c7265616479206d696e74656400000000600082015250565b60006146cd601c83612f68565b91506146d882614697565b602082019050919050565b600060208201905081810360008301526146fc816146c0565b905091905056fea264697066735822122011ec02bf3f1accf3725217154decf2fe70fa969bc0ec3d44071b279b2b67104664736f6c63430008090033",
  "immutableReferences": {},
  "source": "// SPDX-License-Identifier: MIT\n\npragma solidity ^0.8.0;\n\nimport \"@openzeppelin/contracts/access/Ownable.sol\";\nimport \"@openzeppelin/contracts/token/ERC721/extensions/ERC721Enumerable.sol\";\n\ncontract Kiddies is ERC721Enumerable, Ownable {\n\n  uint public constant PRICE_PER_TOKEN = 0.09 ether;\n  uint public constant MAX_SUPPLY = 10000;\n  uint public constant MAX_PUBLIC_MINT = 10;\n\n  string public provenance;\n  uint public kiddieStartIndex;\n\n  bool public isPresaleActive;\n  bool public isSaleActive;\n  \n  string private _baseURIExtended;\n\n  mapping(address => uint) private _presaleList;\n\n  constructor() ERC721(\"Kiddies\", \"KIDDIES\") {\n    kiddieStartIndex = uint(block.number % MAX_SUPPLY);\n  }\n\n  function setPresaleState(bool _isPresaleActive) external onlyOwner {\n    isPresaleActive = _isPresaleActive;\n  }\n\n  function setPresaleList(address[] calldata addresses, uint numAllowedToMint) external onlyOwner {\n    for (uint i = 0; i < addresses.length; i++) {\n        _presaleList[addresses[i]] = numAllowedToMint;\n    }\n  }\n\n  function numAvailableToMint(address addr) external view returns (uint) {\n    return _presaleList[addr];\n  }\n\n  function mintPresale(uint numberOfTokens) external payable {\n    uint totalSupply = totalSupply();\n    require(isPresaleActive, \"Presale is not active\");\n    require(numberOfTokens <= _presaleList[msg.sender], \"Exceeded number of mints allowed for presale\");\n    require(totalSupply + numberOfTokens <= MAX_SUPPLY, \"Purchase would exceed max supply\");\n    require(PRICE_PER_TOKEN * numberOfTokens <= msg.value, \"Ether value sent incorrect\");\n\n    _presaleList[msg.sender] -= numberOfTokens;\n    for (uint i = 0; i < numberOfTokens; i++) {\n        _safeMint(msg.sender, totalSupply + i);\n    }\n  }\n\n  function setBaseURI(string memory baseURI_) external onlyOwner {\n    _baseURIExtended = baseURI_;\n  }\n\n  function _baseURI() internal view virtual override returns (string memory) {\n    return _baseURIExtended;\n  }\n\n  function setProvenance(string memory provenance_) public onlyOwner {\n    provenance = provenance_;\n  }\n\n  function reserve(uint numberOfTokens) public onlyOwner {\n    uint totalSupply = totalSupply();\n    for (uint i = 0; i < numberOfTokens; i++) {\n        _safeMint(msg.sender, totalSupply + i);\n    }\n  }\n\n  function setSaleState(bool _isSaleActive) public onlyOwner {\n    isSaleActive = _isSaleActive;\n  }\n\n  function mint(uint numberOfTokens) public payable {\n    uint totalSupply = totalSupply();\n    require(isSaleActive, \"Sale must be active in order to mint\");\n    require(numberOfTokens <= MAX_PUBLIC_MINT, \"Exceeded number of mints allowed\");\n    require(totalSupply + numberOfTokens <= MAX_SUPPLY, \"Purchase would exceed max supply\");\n    require(PRICE_PER_TOKEN * numberOfTokens <= msg.value, \"Ether value sent is incorrect\");\n\n    for (uint i = 0; i < numberOfTokens; i++) {\n        _safeMint(msg.sender, totalSupply + i);\n    }\n  }\n\n  function withdraw() public onlyOwner {\n    uint balance = address(this).balance;\n    payable(msg.sender).transfer(balance);\n  }\n}",
  "sourcePath": "/Users/ben/nft/kiddiesnft/src/contracts/Kiddies.sol",
  "compiler": {
    "name": "solc",
    "version": "0.8.9+commit.e5eed63a.Emscripten.clang"
  },
  "schemaVersion": "3.4.3",
  "updatedAt": "2021-11-29T01:12:09.859Z",
  "networkType": "ethereum",
  "devdoc": {
    "kind": "dev",
    "methods": {
      "approve(address,uint256)": {
        "details": "See {IERC721-approve}."
      },
      "balanceOf(address)": {
        "details": "See {IERC721-balanceOf}."
      },
      "getApproved(uint256)": {
        "details": "See {IERC721-getApproved}."
      },
      "isApprovedForAll(address,address)": {
        "details": "See {IERC721-isApprovedForAll}."
      },
      "name()": {
        "details": "See {IERC721Metadata-name}."
      },
      "owner()": {
        "details": "Returns the address of the current owner."
      },
      "ownerOf(uint256)": {
        "details": "See {IERC721-ownerOf}."
      },
      "renounceOwnership()": {
        "details": "Leaves the contract without owner. It will not be possible to call `onlyOwner` functions anymore. Can only be called by the current owner. NOTE: Renouncing ownership will leave the contract without an owner, thereby removing any functionality that is only available to the owner."
      },
      "safeTransferFrom(address,address,uint256)": {
        "details": "See {IERC721-safeTransferFrom}."
      },
      "safeTransferFrom(address,address,uint256,bytes)": {
        "details": "See {IERC721-safeTransferFrom}."
      },
      "setApprovalForAll(address,bool)": {
        "details": "See {IERC721-setApprovalForAll}."
      },
      "supportsInterface(bytes4)": {
        "details": "See {IERC165-supportsInterface}."
      },
      "symbol()": {
        "details": "See {IERC721Metadata-symbol}."
      },
      "tokenByIndex(uint256)": {
        "details": "See {IERC721Enumerable-tokenByIndex}."
      },
      "tokenOfOwnerByIndex(address,uint256)": {
        "details": "See {IERC721Enumerable-tokenOfOwnerByIndex}."
      },
      "tokenURI(uint256)": {
        "details": "See {IERC721Metadata-tokenURI}."
      },
      "totalSupply()": {
        "details": "See {IERC721Enumerable-totalSupply}."
      },
      "transferFrom(address,address,uint256)": {
        "details": "See {IERC721-transferFrom}."
      },
      "transferOwnership(address)": {
        "details": "Transfers ownership of the contract to a new account (`newOwner`). Can only be called by the current owner."
      }
    },
    "version": 1
  },
  "userdoc": {
    "kind": "user",
    "methods": {},
    "version": 1
  }
}